:020000040800F2
:10000000F01E0020810100087D240008DD11000899
:1000100000000000000000000000000000000000E0
:10002000000000000000000000000000DD52000899
:100030000000000000000000D5280008E152000880
:10004000A501000800000000A5010008A5010008A6
:10005000A5010008A5010008A5010008490D000838
:1000600000000000150D0008290D0008A50100087A
:10007000A501000829540008A5010008000000009F
:10008000A50100080000000000000000195400084D
:1000900000000000A5010008A5010008A501000856
:1000A000A5010008A5010008A5010008A501000898
:1000B000E55B0008000000000000000000000000F8
:1000C00000F002F800F030F80CA030C8083824180E
:1000D0002D18671EA246AB4654465D46AC4201D180
:1000E00000F022F87E460F3EB6460FCC0126334282
:1000F00000D0FB1A3343A246AB46184714770000E2
:10010000347700000023002400250026103A01D394
:1001100078C1FBD8520700D330C100D50B607047BF
:100120001FB51FBD10B510BD00F0FBF81146FFF75D
:10013000F7FF06F005F800F013F903B4FFF7F2FF3C
:1001400003BC05F0E6FE000070B505460C461646F9
:1001500002E00FCC0FC5103E102EFAD2082E02D3AB
:1001600003CC03C5083E042E07D301CC01C5361FBE
:1001700003E021782970641C6D1C761EF9D270BDD5
:10018000802040038830800201688022D2020A4326
:1001900002600848804708480047FEE7FEE7FEE7A0
:1001A000FEE7FEE7FEE7000004480549054A064B66
:1001B0007047000015540008C1000008F018002026
:1001C000F01E0020F01A0020F01A00204343514393
:1001D00030B55C18010C130C0D4692B25D4380B231
:1001E00051432C19054655430A0C09044D19624127
:1001F0005843010C00044019514130BDF8B5042AA0
:100200002CD3830712D00B78491C0370401C521E5C
:1002100083070BD00B78491C0370401C521E8307C8
:1002200004D00B78491C0370401C521E8B079B0F97
:1002300005D0C91ADF002023DE1B08C90AE0FFF73A
:1002400083FFF8BD1D4608C9FD401C46B4402C4341
:1002500010C0121F042AF5D2F308C91A521EF0D496
:100260000B78491C0370401C521EEAD40B78491CC1
:100270000370401C012AE4D409780170F8BD01E044
:1002800004C0091F0429FBD28B0701D50280801C02
:10029000C90700D00270704700290BD0C30702D0F5
:1002A0000270401C491E022904D3830702D5028034
:1002B000801C891EE3E70022EEE70022DFE770479B
:1002C000704770471F22030C02D10F2200041CD07C
:1002D000030E01D10002083A030F01D10001121FE1
:1002E000830F01D18000921E002801DB4000521EC6
:1002F000D2055118021251181922904004D3491CFA
:10030000002801D14908490008467047C10FC907B4
:1003100000D04042012292071143D3E7012189070F
:10032000D0E7754600F024F8AE460500694653460E
:10033000C008C000854618B020B5FFF735FF60BC87
:10034000B64600260027C0C5C0C5C0C5C0C5C0C5CB
:10035000C0C5C0C5C0C5403D490849008D4670476D
:1003600010B50446C046C0462046FFF7E6FE10BD65
:10037000004870476805002070B58C180578401C4F
:100380006B075B0F01D10378401C2A1106D102785C
:10039000401C03E00678401C0E70491C5B1EF9D11E
:1003A0002B0705D40023521E0DD40B70491CFAE70D
:1003B0000378401CCB1A921C03E01D780D70491C79
:1003C0005B1C521EF9D5A142D8D3002070BD80B568
:1003D0000146652000220A544B6D48691C310422F5
:1003E000984780BDB0B56521415C04465C34012965
:1003F00015D0002917D1C169CAB21D4B9A5C0D0AEC
:10040000EDB255405A5D0D0CEDB255405A5D0D0EE2
:1004100055405A5D002A07D00420A071B0BD0120CC
:10042000607100206072B0BD0F220A408266531FC7
:10043000022B02D201206071B0BD092A09D1090442
:10044000090D2180F6D06288914205D90220A07161
:10045000B0BD0120A071B0BD227C5200521843698A
:100460008169456D1846A84701206072B0BDC0463D
:10047000DD6B0008B0B504462420205C25462435F9
:10048000032805D100202870A87A022806D01DE094
:10049000A16C00228A71A97A02290BD10A35204663
:1004A0002830A064A36D6069A16AA28D98470320DB
:1004B0002870B0BD022809D121462031A164A36D66
:1004C00060690422984703202870B0BDEFF31080C4
:1004D00072B6626C002A16D003209071A264A36DDC
:1004E0006069116892889847A87C022802D0A87E8B
:1004F00002280CD1204630302018616C401A383068
:10050000606462B6B0BD0020A06462B6B0BD0020D9
:10051000606462B6B0BD0000F0B58DB00446002640
:100520000E806120225C20462430002A51D02346D0
:100530006133E26925461C35274660371E703B79DA
:10054000022B00D1E9E0012B67D0002B00D0BFE2E5
:10055000A16E062900D13AE1052900D0B8E26D214B
:10056000665C93049B0E0B939E420796334600D322
:100570000B9B069363546E21665CD3025B0E05935E
:100580009E420396334600D3059B0A9363546F2122
:10059000665C13015B0E04939E420196334600D3C2
:1005A000049B099363543B7B1106CE0F0021B34299
:1005B00002910B4600D333463B7308939E1B731E78
:1005C0009E41079B0B998B4200D2A1E1069B0299A9
:1005D000A0E16221615C002900D1E2E0254662359C
:1005E000C84A4A4309234B40C74EF35C4B40F15C79
:1005F000C64B595C090751180F312162EFF3108186
:1006000072B6A16C002900D1CFE062B60178002952
:1006100000D0D4E002210170D1E0A16E062900D102
:1006200003E1052900D053E26D21665C93049B0E23
:100630000B939E420796334600D30B9B0A93635459
:100640006E21665CD3025B0E06939E420396334690
:1006500000D3069B099363546F21665C13015B0E04
:1006600004939E420296334600D3049B0C95089354
:100670006354397B1306DE0F0023B142194600D3C1
:100680003146397305918E1B751EAE41079D0B993E
:100690008D4200D2012305991E430CD1039B069D78
:1006A0009D4208D8029B049D9D4204D85206530FD8
:1006B0003A7C934202D000223A713A7CC90112017D
:1006C0000A430A9909021143099A93030B430899B3
:1006D0004A051A43511DCDB2B94E755D1B0ADBB2F6
:1006E0006B40F35C150CEDB25D40735D1201120FAF
:1006F0005A40B44B9A5C12070A432262EFF310810E
:1007000072B6A16C002900D152E162B601780026D0
:1007100000290C9D00D0DBE147E1A36E092B00D13D
:10072000E7E0062B00D1B8E0052B00D0D0E16D2129
:10073000665C93049B0E9E42099600D31E46089366
:1007400066546E210B91615CD3025B0E0593994256
:1007500002910B4600D3059B07960A930B996354AD
:100760006F21665C13015B0E03939E420196334634
:1007700000D3039B06936354397B1306DE0F0023DB
:10078000B1420B93194600D33146397304918E1B45
:10079000711E8E410999089B994200D235E10B994F
:1007A00034E1002630460DB0F0BD21462031A16471
:1007B0000322027062B66069A36D04229847002686
:1007C0002E70216D6069884730460DB0F0BD0C95E4
:1007D000397801230B409F01110B89B20B910D0356
:1007E0007D19DB01EB186325655D2D072D0D5D1966
:1007F000AB1DDFB2F249CF5D2D0AEDB27D404D5DFC
:10080000120CD2B26A408A5C0B99090B5140ED4A36
:10081000515C0907C9182162EFF3108172B6A16C0F
:10082000002900D1D0E062B65EE00C953978012352
:100830000B409D01110B0A9289B20B9109036918B3
:10084000DB01C9186323E35C1B071B0DCB18190AD6
:100850003633DDB2DA4A555DC9B26940515C15469E
:100860000A9A120CD2B24A40A95C0B9A120B4A4067
:10087000D449895C0907C9182162EFF3108172B667
:10088000A16C002900D1A6E062B6017800290C9D78
:1008900000D0ABE002210170A8E00C95397801226C
:1008A0000A409301617F0D035B19D2019A186323FB
:1008B000E35C1B071B0DD218130A3632D5B2C04FAA
:1008C0007D5DDBB26B40FB5C09095940795CBD4B37
:1008D000595C090789182162EFF3108172B6A16C87
:1008E000002900D1D8E062B6017800290C9D5CD0C7
:1008F000EEE001222274008F08803878401C3870A6
:10090000A669E5E000010100DD6B0008F67500084E
:100910000121069B0E431BD103991E46059B8B426A
:10092000334615D80199049B8B42334610D85106A3
:10093000490F3A7C91420BD1012139710999890102
:10094000E1810A9949012031A18159012031418772
:100950000899C9013A7C12010A43190211430A9A03
:1009600093030B4309994A051A43511DCEB2944F84
:10097000BE5D1B0ADBB27340FB5C160CF6B25E4038
:10098000BB5D1201120F5A408E4B9A5C12070A434C
:100990002262EFF3108172B6A16C002929D062B6F1
:1009A00001780026002900D092E0022101708FE03A
:1009B00021462031A1640322027062B67EE0C04667
:1009C000DD6B0008F675000821462031A164032282
:1009D000027062B666E021462031A16403220270F3
:1009E00062B66069A36D042298470C9D022038719D
:1009F0006EE021462031A1640322027062B6606974
:100A0000A36D04229847002662E00121049B0E4357
:100A10000C9502D0079D069E10E00299059D8D421F
:100A2000F8D80199039D8D42079D069E06D8510670
:100A3000490F3A7C891A4A424A410B920B99397103
:100A4000D9013A7C12010A43290211430A9A9303FD
:100A50000B4372051A43511DCDB2594E755D1B0AE9
:100A6000DBB26B40F35C150CEDB25D40735D1201BF
:100A7000120F5A40534B9A5C12070A432262EFF35B
:100A8000108172B6A16C002912D062B601780026DE
:100A900000291AD00C9D1BE021462031A1640322BD
:100AA000027062B66069A36D042298470C9D0FE046
:100AB00021462031A1640322027062B66069A36DF1
:100AC0000422984700260C9D02E0022101700C9D33
:100AD0006069636D04222946984730460DB0F0BD29
:100AE000F0B581B01468E5B2354E755D270AFFB2E6
:100AF0006F40F55D270CFFB26F40F55D2601360FA4
:100B00006E40304DAD5D2D0725431560EFF3108429
:100B100072B605462435846C002C10D062B60024D1
:100B2000002914D00A2919D0092914D1016C0C68A4
:100B3000944231D00324426C002A32D130E00A2999
:100B400015D0092918D1016C03248C7118E028787C
:100B5000002830D00324204601B0F0BDA97A012935
:100B600025D183850220A872204601B0F0BD032163
:100B7000A9720146283103E0032129700146203182
:100B8000816462B64169846D084611461A46A047E1
:100B90000024204601B0F0BD0024426C002A00D1A0
:100BA00041648B8002208871204601B0F0BD03248F
:100BB000204601B0F0BD02202870204601B0F0BDF3
:100BC000DD6B0008F67500080A2A0BD12E22825C24
:100BD000012A0FD82830012282710068001D0860A8
:100BE000104670473622825C022A05D33E22825C80
:100BF000012A0BD9002070470346303303640122D9
:100C00009A71006B001D0860104670470346383328
:100C1000036401229A71806B001D086010467047C2
:100C200070B56424045D022C1DD10546643516019F
:100C30001E430C1F26602D7A012D05D1CA258D5427
:100C40008918FE254D70921C0A2B04D1017C0029C5
:100C50000BD000210174111D8DB2194622462B467E
:100C6000FFF73EFF70BD022070BD012070BD10B5C2
:100C700004464069E16C88476020002121542046E9
:100C800060308180636D60691C340422214698477E
:100C900010BD000070B50A14154655430BB25B43F6
:100CA0005B1906887643B34217D90C04438818466B
:100CB0005843854217D9301AC217120B80180015F5
:100CC0004000134A105A002C00D54042002919D484
:100CD0001A4680B21104081870BD0A0C084680B28A
:100CE0001104081870BD701BC117090B40180015BE
:100CF00040000749085A002CEBD5404280B211044D
:100D0000081870BD5A4280B21104081870BDC04660
:100D1000F46D000880B503480721016004F0D2FBA0
:100D200080BDC0460400024080B5054801688906C0
:100D300004D5202141600348FFF754FB80BDC04625
:100D400000000240D404002080B501204003064981
:100D50000A68920402D44A68024203D008604860DC
:100D600004F034FF80BDC0460C18024010B52621A7
:100D700041431B4A54183421615C002900D010BD46
:100D800080001A49085803F083FEE085208410BDD6
:100D900070B526214143124D691800244C840C84FF
:100DA000CC838C83CC828C824C820C82CC840C854C
:100DB0004C858C85CC850C8686000A488059214656
:100DC00001F0C9FB08488059214601F0C4FB0748DF
:100DD000805903F0A3FEA819806801F073FD70BD6F
:100DE0001C06002054050020500500205805002056
:100DF00070470000054800687047C0461F480078EB
:100E000002490A68101808607047C046C0180020E0
:100E100010B50124200208490A6802430A60032031
:100E200000F00CF8002801D0204610BD00F028F892
:100E30000024204610BDC0460020024070B50F4E71
:100E400031780124002916D005467D20C00005F028
:100E50003FFD01462D48006805F03AFD00F05AF8C4
:100E6000032D08D8002806D10024E0432946224655
:100E700000F028F87560204670BDC04600000020D4
:100E800082B0094841680122114341604168114024
:100E900001910199110702680A4302600068084045
:100EA0000090009802B070473C100240002805D422
:100EB0001F21084001218140014801607047C04660
:100EC00000E100E0002805D40322034693430C4AC6
:100ED0009A1806E00F220240083A03239A43074B70
:100EE000D2188007C00E8901C9B28140FF23834018
:100EF00010689843084310607047C0461CED00E03E
:100F000000E400E0014800687047C0465C0400202F
:100F100070470000401E010E01D0012070470749B4
:100F2000074A5060074803680B4003218907591896
:100F3000016000209060072111607047FFFFFF00F3
:100F400010E000E020ED00E080B5FFF7E1FF80BD9C
:100F50007047704770470000B0B5002824D00446A1
:100F600005463C356878002804D1002028702046CA
:100F700000F05AF80220687020680368254988420A
:100F800002D0254A904211D170229343A2681A439D
:100F9000224B98420EDD884212D0214B98420FD04E
:100FA000204B98420CD033E00120B0BD1A461B4BB9
:100FB0009842F0DC184B984202D02A4B984227D135
:100FC00003231B029A432369134380229343A2699C
:100FD0001A430260E268C26262688262884205D097
:100FE0000F49884202D00F49884201D161690163EB
:100FF000012141612973A970E97029716971A97191
:10100000E97129726972A972E97269700020B0BD34
:101010001346DAE7002C014000040040FF2B01409A
:10102000004801400044014010B582B000680D49FD
:10103000884201D002B010BD0120C0030A490A68ED
:1010400002430A60096801400191019813240321B9
:1010500000222046FFF736FF2046FFF727FF02B0A9
:1010600010BDC04600200040401002407047000004
:10107000B0B50446006801698907554D17D5C168A8
:10108000890714D52946FE31016101212177806944
:10109000800703D02046FFF7E9FF05E0204600F077
:1010A00099F8204600F097F8002020772068016921
:1010B000490718D5C168490715D52946FC31016192
:1010C0000221217780698005800F03D02046FFF739
:1010D000CDFF05E0204600F07DF8204600F07BF8CB
:1010E0000020207720680169090717D5C168090722
:1010F00014D52946F831016104212177C0698007A0
:1011000003D02046FFF7B2FF05E0204600F062F86A
:10111000204600F060F80020207720680169C906A9
:1011200018D5C168C90615D52946F03101610821D5
:101130002177C0698005800F03D02046FFF796FF16
:1011400005E0204600F046F8204600F044F8002074
:10115000207720680169C90709D0C168C90706D08E
:101160002946FF310161204600F036F82068016908
:10117000090609D5C168090606D5294680310161ED
:101180002046FFF7E6FE20680169C90507D5C1685A
:10119000090604D505612046FFF7DAFE20680169DB
:1011A000490609D5C168490606D52946C0310161FD
:1011B000204600F012F820680169890607D5C16849
:1011C000890604D5E03505612046FFF7C3FEB0BDB2
:1011D000FFFEFFFF704770477047704704F066F9E5
:1011E000FEE700008268D20712D1C268094B1340A3
:1011F0004A681A438B681343CA681A43C2600322C1
:1012000092070369934309681943016100207047FD
:1012100001207047C73FFFFFF0B5C268C26882680F
:10122000D20713D101225305C2689202134A0FD587
:101230004C68F02C0CD1C46814400D6825430E4650
:101240000C3654CE2A43224332430CE00120F0BD39
:10125000C46814400D6825430F460837D4CF2A438D
:10126000224332433A43C260C46800221C4203D086
:101270004968836A0B4383621046F0BD3CC2FEFF9F
:10128000F0B583B00B68002B5AD000220191029078
:1012900016E0764376430F2171438C43774327430F
:1012A000029EF750019D009B6968484331681940D0
:1012B000014331602B682946521C1C46D4403FD064
:1012C000012494401C40F7D04868431E022B009034
:1012D000204615D260438F68474303254543029952
:1012E0008E68AE433E4302998E600199CE68664394
:1012F00002994F68A74337430199029B5F6002E060
:10130000604303254543EB430D460E69464302996E
:10131000CF681F4037430299CF60029E009902298F
:10132000C2D10093260A01D0242300E02023019992
:101330004F690299CC58002EABD106464643AAE726
:10134000002003B0F0BD000070B50446614E351FAB
:101350002868382101406448082921D0102919D172
:10136000316803220A405F49032A00D00846022A56
:1013700000D0014630684004400E484331684906B9
:10138000490F491C05F0A4FA3168490F491C05F0C2
:101390009FFA05E00C3E30688004410F5148C84078
:1013A0002060296889093C220A40514989581F2236
:1013B0001140C84060602968890A1C230B404B49D2
:1013C000C9581140C840A06070BDC046B0B50328E0
:1013D00030D1404CA06C032108400A0480183E4ADA
:1013E000904229D03D4A90422CD03D4A904230D183
:1013F000201F0068382202403B48082A69D0102A82
:1014000049D122680A403749032A00D00846022AF7
:1014100000D0014620684004400E48432168490638
:10142000490F491C05F054FA2168490F491C05F081
:101430004FFAB0BD0020B0BD0120C103206D800374
:101440000840B0BD0C3C20684005C1172548084045
:10145000B0BD251F2868382202402348082A27D01B
:10146000102A1FD122680A401E49032A00D00846CC
:10147000022A00D0014620684004400E48432168FB
:101480004906490F491C05F023FA2168490F491CF8
:1014900005F01EFA0CE00C3C20688004410F114856
:1014A000C840B0BD0C3C20688004410F0D48C840C6
:1014B00029682A68920A1C2313400C4AD2581F2319
:1014C0001A4089093C240C40094909591940C8406F
:1014D000D040B0BD0C100240030003000200030026
:1014E000010003000024F40000127A00B86B000829
:1014F000786B0008014908607047C0465C04002012
:10150000B0B51F22D30234C99C433F239B029D43A5
:101510000B782B4323430F242403A2431A430323B2
:101520009B034C689C4314434A88154B1340234348
:101530000A6A1A43E84B0C39984202D042640020F0
:10154000B0BD104B1A404B690F4C1C4014438A69C4
:101550000E4B13402343232212064C6A94431C4330
:1015600011225206CB6993432343012252070C6A8E
:1015700094431C438A6A224342640020B0BDC046A3
:10158000FF1F0000FFFF00CCFFFF0FCCFFFF0FDCB1
:1015900010B50468D04A904202D01C4B98420FD13B
:1015A00070239C434B682343194CA0420CDD9042AE
:1015B00010D0CA4CA0420DD0C94CA0420AD023E0A2
:1015C0002346134CA042F2DC104CA04202D0114C36
:1015D000A04219D103242402A343CC681C43046015
:1015E0008B68C3620B888362904205D0BB4A9042ED
:1015F00002D0BB4A904201D10969016341690122CD
:101600000A434261002010BD1C46E8E70004004088
:10161000FF2B014000200040F0B584B00123AD4C09
:10162000A1424CDC012900D180E0102900D1CEE09C
:1016300001242402A14276D1016AA1430162AD498D
:10164000491C13691B020B40032102910902046A21
:101650008C431C431168039153681B022343456864
:10166000C4699D4FB84205D09C4FB84202D09C4FF0
:10167000B84219D102990F03BD4356690196966984
:10168000D769009737019A4E3E402E43009D6D0169
:10169000354389028B439849091D019EB6020E40CD
:1016A0001E4391688B02334345608F490C40039978
:1016B0000C43C461D168C1630362002333E0012499
:1016C0002503A94269D02504A94200D1BCE0250523
:1016D000A94228D1016AA9430162016A16685368C8
:1016E00003931569476D7C4B984205D07B4B98421C
:1016F00002D07B4B984206D1A30444689C43936973
:101700009B0223434360774B1F4033023B434365B7
:10171000D268C2650322120591436A0852050A4342
:1017200003990905BAE0184604B0F0BD0126F1435B
:10173000036A0B40036213690B40046A0327BC432E
:101740001C43116803915168214345688469624BC9
:10175000984205D0614B984202D0614B984213D118
:101760003B029D437302566902969769D6699F436F
:101770002F4375003D430C239943029B5B08DB001C
:101780000B439168890019434560574B1C40039BEC
:101790001C438461D268426397E0016AA9430162F5
:1017A000016A436816685568039515690295C7690B
:1017B000494DA84205D0494DA84202D0484DA84203
:1017C0006ED1A403A3439469A4011C4369E0016A98
:1017D000102399430162016A3023994313695B081E
:1017E0005C010C431768516809012143456883690E
:1017F000394EB04205D0394EB04202D0384EB042D8
:1018000019D10326B602B543546903943E4697693D
:10181000D4690294BF00384C3C4037462C43029DAB
:10182000ED002543C024A143039C6408E4010C435C
:1018300091688901214345602C4C23403C021C43A4
:101840008461D268826340E0274D7335016A294084
:101850000162016A1668536803931469476D1E4B51
:10186000984205D01D4B984202D01D4B984205D19D
:1018700043682B4095692D021D4345601A4BDB1CC4
:101880001F4037434765836DD26882650322120487
:101890009143620852040A4303990904114314E076
:1018A0001C464460114B1F4033023B43C361D26866
:1018B00002640322120391430D4A1032029B1B0360
:1018C00013400B430399090319430162002318468F
:1018D00004B0F0BDFF0F0000002C014000480140A3
:1018E00000440140FF8FFFFE8CFFFEFFFF8CFFFED8
:1018F000F0DFFFFFFFFDFFFFFCF7FFFFF0B583B058
:1019000004460068C00726D10D4620682D490140D5
:10191000A86808432969014368690843E9690143E4
:1019200021600320010362688A43E9681143616012
:101930000002A1688143A8690843A06001262248EB
:1019400084420CD02148844233D10320FFF73EFD6E
:1019500000280AD12DE00126304603B0F0BD6846CC
:10196000FFF7F2FC0298002823D06F68002F20D0E8
:10197000296800260B291CD8890015A2515804F0AB
:10198000A7FF0121C903EA698A420BD17908400007
:101990004018394604F09CFF194901400007400FE8
:1019A000401805E079084018394604F091FF80B2EC
:1019B000E060E06A0F21884329880143E1623046F4
:1019C00003B0F0BDF369FFEF004400400038014070
:1019D00001000000020000000400000006000000FA
:1019E000080000000A0000000C00000010000000C9
:1019F0002000000040000000800000000001000006
:101A0000F0FF000010B512C8084603F0E9F8208284
:101A1000000C608210BDB0B50446807F01282DD136
:101A2000207B01280ED003281ED00325022824D1B4
:101A300060682421002242542068042103F0EDF85C
:101A4000102009E060682421002242542068032508
:101A5000294603F0E2F80E20215EE28A206803F0B6
:101A600067F8002808D108E0606824210122425468
:101A7000618AA28A428201820225A577B0BD000058
:101A8000034BC383C282C181012101737047C046E9
:101A900001030000514BC383C28201820221017302
:101AA0007047C046B0B5044600F072F800250B2818
:101AB00004D1204600F01CF8002801D02846B0BD13
:101AC000022020760020A08301252846B0BD838B0C
:101AD0000B438383438B0B4393434383704780B50E
:101AE000006803F085F802F092FF80BDC07F704768
:101AF000408B7047818B408B0004401870474068D2
:101B00000188408800044018704740688188C08878
:101B1000000440187047017B03290BD0022911D023
:101B2000012917D10E21405E002813DA0020C0439E
:101B300000B270471221405E00280BDA0020C0433B
:101B400000B270471021405E002803DA0020C04335
:101B500000B27047012000B2704740688189C08997
:101B60000004401870474068018A408A0004401809
:101B70007047C08A70470E21405E70471021405E5A
:101B8000704780B5006803F030F880BD808B7047E7
:101B9000407E704740681E21405E70474068418B20
:101BA000808B0004401870474068C18A008B000495
:101BB0004018704710B50024C4820482C4810473A5
:101BC0000EC08481C4810482847410BD034AC28320
:101BD000418203220273090C8182704701040000D4
:101BE000B0B50546FFF7D4FF0024002801D02046F9
:101BF000B0BD2846FFF7CAFF0028F8D12846FFF7F6
:101C000077FF0028F3D10124AC772C762046B0BDB5
:101C1000F0B581B00446FFF7BBFF06462046FFF74C
:101C2000B5FF0025002802D0284601B0F0BD704263
:101C300070410C3E7742774147402046FFF758FFFE
:101C4000411E88413843EFD10125052020762846E2
:101C500001B0F0BD80B5006802F0E5FF80BD000076
:101C600010B501140D4A4A4301B20D4B4B439B186A
:101C7000032189072F4A8B42114600DBD90B2E4CDA
:101C8000A34200DD511E8BB20124E403A34200D124
:101C9000511C090480B2081810BDC046346CFFFF07
:101CA0001AB6FFFFF0B583B00446084600F05EF8B0
:101CB0002214031411460293594324B203B220465E
:101CC00001935843431A032081071A4800918B421D
:101CD000054600DBDD0B471E17498B42394600DC09
:101CE00029468DB20123DB03461C9D42354600D0B8
:101CF0000D4602994C4301994A431119009A9142A9
:101D00000ADA0D4A91420BDDA8B2B9B299420CD160
:101D10003104081803B0F0BDC80B074A9142F3DC48
:101D20000746A8B2B9B29942F2D03E46310408182B
:101D300003B0F0BD0080FFFFFFFFFF3FB0B50446DA
:101D4000084600F013F8211402140B46534324B242
:101D500000B225464543EB18DB0B9BB2544341438D
:101D6000081BC00B0004C018B0BD000080B2820B7D
:101D7000022151408009C0467944097949008F44C5
:101D800001230A16C1B24800164A105A4042FF23E6
:101D90004B40590012E0C1B24800124A105AFF23CA
:101DA0004B405900515A89B2000440187047C1B2E3
:101DB000FF20484040000B4A105A4900515A4942FE
:101DC00089B2000440187047C0B24100054A515A18
:101DD000FF2343405800105A404289B20004401883
:101DE0007047C04610760008F0B585B006460C88EE
:101DF00003462133002C049329D03068C28909207E
:101E0000944239D801948A781A70CF789F700A79F1
:101E10001A714A799A71D319B47FA34202D90A2060
:101E200005B0F0BD00908D1DFA4227D10022049B21
:101E3000901D0199884200981ED8881A801E7083D0
:101E400028781872002802D0002005B0F0BD0020CC
:101E50001872308B00280AD071695A7A0A52306899
:101E60004468328B921C92B20923A047049B002045
:101E700058723083F077587005B0F0BD00242746C3
:101E80002246029613E0304601F092FB049B029E2C
:101E9000F1680855987899790818F168095D039AEE
:101EA00051188AB2AD1C7F1CFCB2A042C0D903926B
:101EB000A000716809182E88304601F089FB049B48
:101EC000F8B299788842DED20220E0E7F0B585B01A
:101ED00004462220215CE07F884249D125462035F6
:101EE0000026E677208B00282ED120680368214643
:101EF000143109229847002823D004202083002091
:101F000028706948006861690860687AA97A88421F
:101F100017D0A872E8782871E97929726A78AA70CE
:101F20006A79AA71628BA283081882006168A0682E
:101F3000FEF70AF9E878E9790A18E1682069FEF7FE
:101F40005DF9208B002815D0A18B884202957AD8A4
:101F50002A796169002A019151D0032717400B1893
:101F6000A0680490501E032806D2002F2DD146E011
:101F7000401CE07705B0F0BD0397FC27174004999B
:101F80000831002608460838006800881880208B31
:101F9000801C2083081F006800885880208B801CCC
:101FA0002083086800889880208B801C20834868E4
:101FB0000088D880208B801C208308331031361D88
:101FC000B742DFD1039F002F19D0B10004984058C9
:101FD00000881880208B801C2083012F0FD004984C
:101FE0000918486800885880208B801C2083022FA5
:101FF00005D0886800889880208B801C2083A97970
:102000004B087E2B1FD82B788B421AD100212970C8
:10201000297A002917D08918049121690391A668AB
:10202000019B1746950075592D6881B25D50039943
:10203000895C401820837F1CFAB204999142F1D840
:1020400001E0591C2970A18B82B28A42029A91D96F
:102050009179FE2918D1117A002915D015794919DD
:102060000491216903916369A7682E46A9007958F4
:10207000096882B299500399495D40182083761C03
:10208000F5B20499A942F1D880B26169029A927AB4
:102090000A5220684568228B921C92B20923A847F5
:1020A0000020208305B0F0BDD4060020F0B583B039
:1020B0000346008B00282DD01A4624329178FE2941
:1020C000009218D11179002915D01278891802913F
:1020D000196901915D699F681646910079580968F0
:1020E00084B229510199895C40181883761CF2B298
:1020F00002999142F1D880B25969009A92790A52B4
:1021000018681D4644681A8B921C92B20923A04796
:102110000020288303B0F0BDF0B585B004464068C8
:102120000388A189891E0391A181861C6660002213
:10213000E281FF201946814307201D468543E808B8
:1021400001273D02A94205D0A94207D00225202837
:1021500009D989E01F220240A942F7D12020022597
:10216000202800D980E004970296591E4907090EDD
:10217000B44B5F1823460E33216889894E1EC04632
:10218000784400794000874410171D232A2F3943D3
:102190006F486F6F6F4D6F6F6F6F6F6F6F6F6F6F98
:1021A0006F6F6F6F6F6F6F6F57000420E081A068D3
:1021B00004990170002557E0B1B2204601F0ECFE11
:1021C000054651E0B1B2204601F084FA05464BE0E5
:1021D0003846FFF705FD05460498454044E038467B
:1021E000FFF716FD00253FE03846FFF7D1FC00253C
:1021F000062839D13846FFF72DFD35E03846FFF780
:10220000C7FC00282AD03846FFF702FD00252BE046
:102210003846FFF747FC002526E03846FFF7F2FB7B
:10222000002521E0A0680090039880B232B20299A4
:1022300000F02CF8054617E00D25012A14D8374682
:1022400090000D490E58002E0ED0A0680090039803
:1022500080B23AB20299B047054605E03846FFF72A
:10226000BFFC054604984540E089A1680D54E0890B
:10227000401CE08105B0F0BDF417002070477047A6
:1022800080B57D480068FFF783FC80BD0220704761
:1022900080B50A46014678480068FFF7F1FB80BD2B
:1022A00080B559480078002803D000F003F803F007
:1022B0009DFB80BD70B5544D2878012810D1A888A9
:1022C00000280ED0461EAE806888002802D068889C
:1022D000401E6880E888002802D0E888401EE88018
:1022E00070BD03F0E3F9FFF7CAFF0E4C2068826867
:1022F00021460C319047606001260028E3D0206819
:102300000368214608310A2298470028DBD020467E
:10231000FFF702FFE289A168206844680A23A0470A
:10232000D1E7C0461C01002080B553480068FFF784
:1023300057FC80BD80B550480068FFF769FC80BD40
:10234000F0B583B000285DD02F4C01902F48A060DD
:1023500000210291217000F085FC2D48FEF787FCDA
:102360002C4E304600F0EFF82B4F384602F00EFFAF
:102370002A4D286831463A4602F03FFC284E304646
:1023800003F059FD2968A06800902648264B324684
:1023900002F04CFA254800F0D6F8254800F0D3F8B2
:1023A000244F384602F028FB2348006826461036A2
:1023B0008660C760214800F095F82148E06001F090
:1023C000EBF80298FEF7E4FC342001252554134F66
:1023D000386802F005FC2062386802F001FC000C4D
:1023E000A0843968A368174F38463246FFF7E2FBEE
:1023F000384602990A46FFF743FB01980760FFF74A
:102400003DFF257003B0F0BD1C060020C401002074
:10241000D404002088010020FC0200205805002080
:102420009C04002070020020E80200205C010020D3
:10243000300100200C0000204C050020600400202A
:1024400058020020FC17002080B5FEF75BFD7D21BF
:10245000090104F03DFAFEF75DFD0648016800221F
:10246000D043FEF72FFD0448FFF76AFF04F096F90A
:1024700080BDC04604000020B0180020FEE7000028
:1024800010B504460078002802D00020E08210BD7C
:102490002620205C00F07EFE0749884207D0228A71
:1024A000218B4B1E5343181804F012FA2082204649
:1024B00000F02BF8E08210BDFFFF00000021018238
:1024C00070470178002902D0808A00B270471E212F
:1024D000415E026A038A9A1A4A431114808C0818D2
:1024E00000B2704710B504460078002804D00020E0
:1024F000E082608A208210BD201D00F05FFF26214F
:1025000060542046FFF7DAFF10BD018A428B9142EA
:1025100001D908207047828B914201D20020704778
:10252000C08A70472221405E7047C08C70470621E8
:10253000405E7047408B7047C08B70470421405EFF
:102540007047808B70470021816202684260816021
:10255000018C418470478160704741847047C18419
:1025600001228A4082847047C1807047B0B50D4611
:102570000446C1830120884060830549A940204664
:1025800000F013F80349A940204600F00CF8B0BD54
:10259000FF7F00000180FFFF81807047818301225F
:1025A0008A400283704701617047C1607047000034
:1025B000F0B50622855E1622825E1423C35E0424D3
:1025C000045F4C43002D0FD0694387687E18194D76
:1025D00026D40F4000D43546C1688D4205DC016920
:1025E0008D4202DB294600E00021858B2C41C58B02
:1025F0000E462E4135199D4205DD5C1B1A466118B9
:10260000816010B2F0BD541B02DDAA42F7DC02E08B
:102610000024AA42F3DC2A466118816010B2F0BDA2
:10262000002903DC3546002FD5DDD5E7AD1E002F90
:10263000D1DDD1E70100008010B581680C228A5EEF
:102640001623CB5E53430E228A5E1824095F514342
:10265000C918CA17120C891809140022825E891A37
:1026600009095118018010BD002101807047B0B5E3
:1026700004460020255EE06803F02EFB6843FDF76A
:1026800045FE0146606804F01FFAB0BD80B581695F
:10269000884780BDB0B504460020012909D0002933
:1026A00012D1204600F00EF9E1682046884701204B
:1026B000B0BD4E21615A0125002906D022464E3276
:1026C000491E1180090402D0B0BD2846B0BDE168A2
:1026D000204688472846B0BD80B50268904780BD37
:1026E000F0B585B00746808F0AB2424360203D5A5C
:1026F000081468434000161AF10F7118491003912D
:1027000043429C1AE00F2018401002903946403195
:1027100004976A370120C243964216DC944231DCAA
:10272000042038700398029A801AC217920B8018FE
:102730008014AA0885187042800C2F186042800C03
:10274000281A2C4603463A4670E001950022D543EC
:10275000AC422BDB38700398029A801AC217920B96
:1027600080188014019A92088518F017800B301891
:102770008014281AE217920BA2189214AF182C4654
:102780003B4626E0002B26DD022038700398C01A55
:10279000C217920B80188014AA0880187242920CFB
:1027A00085185A0CAF1804463B463EE0002B019DAD
:1027B00027DD3A700298181AC217920B80188014FD
:1027C000AA0887186042800C3D1A580C281A3C460B
:1027D0002B4602462AE0032038700298181AC217C6
:1027E000920B80188014AA088018E217920BA21886
:1027F000921485185A42520CAF1804462B463A469A
:1028000014E0052038700398C01AC217920B801884
:102810008014AA088718F017800B301880143D1A0E
:102820005842400C281A3C4603462A4648810D81EE
:10283000CF80D01782434A80D81783430B80E0179C
:1028400084430498C4879EB2A7B21D480568B74266
:1028500007D9A54205DA95B2BD42154600D82546EE
:102860000560BE4207D99D4205DA95B2B5421546CC
:1028700000D81D460560954200DA0260C88B012829
:1028800019D110200E5E488C4542002E064600DC11
:102890002E463419049EF48712240C5F002C044643
:1028A00000DC2C46E3180B801423CB5E002B00DCED
:1028B00028468018488004984169884705B0F0BDD3
:1028C000B818002080B54168884780BD80B5816810
:1028D000884780BD70470000F0B58BB004466E207D
:1028E000205C26468036424D00285CD120466A3066
:1028F0000146079020680A9060690990862005903B
:102900000896002626548722049204200690A0549C
:1029100026676667A667087036486061364820609B
:102920006868364901406960204600F01DFB089840
:10293000C06870210391425C28461C3802902146F1
:1029400044310191274686373B4603F097FF2046E6
:1029500000F0B8FA049826540598265428482060B8
:1029600007980670089E204600F0FEFAF06803996A
:10297000425C029801993B4603F080FF204600F03C
:10298000A1FA079906980870012008710A9820603A
:10299000206F00092067606F00096067A06F000961
:1029A000A067099860618B2000212154286815498F
:1029B0000840286028680840286028680840286087
:1029C0003088A861E8612862281F01680822114345
:1029D00001600121C90203680B43036028681043AA
:1029E00028606868E749014369600BB0F0BDC046E4
:1029F0001C2C0140292E0008D12B0008AAFAFFFF49
:102A00001D2C0008FFF7FFFF026F0A60426F4A604B
:102A1000806F886070470000F0B501242203904B5E
:102A20001D6895431D60644A13680425AB43136019
:102A30008C2282586A23C75CBB00D218536B1E8855
:102A4000D26C15885D4A148002465032052F00D999
:102A5000A4E0BC406707BF0F2DD1E406A40F5BD0F4
:102A6000046FA41BE717E6197E407D27FF00042EA4
:102A700005D8534B1B68BB4201DD504B5E80514B68
:102A80009C4200DB1C46504EB44200DC34460C80B5
:102A9000406F441BE317E0185840042805D8484B02
:102AA0001B68BB4201DD454B9880B44263DA46485F
:102AB0004880464C79E0036F9C1BE317E6185E40A4
:102AC0007D23DF00092E05D83D4B1B68BB4201DD8D
:102AD0003A4B5E803B4EB44200DB34463A4B9C425C
:102AE00000DC1C460C80806F401BC317C5185D407E
:102AF000092D08D8324B1B68BB4204DD00202F4B48
:102B000018809D800C8823B2C01844422E48B442DD
:102B100038DD841E4C8048E0436F9C1BE317E618A9
:102B20005E407D23DF00092E05D8254B1B68BB4284
:102B300001DD224B5E80234EB44200DB3446224B43
:102B40009C4200DC1C464C80806F401BC317C5189C
:102B50005D40092D07D81A4B1B68BB4203DD0020DE
:102B6000164B18809D8000194042B04210DD164877
:102B7000801E088019E01348844211DD1248841E2B
:102B80004C8012E084420DDA0F4848800F4C0CE074
:102B90000D4B984208DA0C48088006E04C8804E0A7
:102BA0004C8002E04C8000E008805480088810804F
:102BB000001940429080F0BD0C240140C206002064
:102BC000B4180020FF7F00000180FFFF018000009B
:102BD000B0B501221203224B1C6894431C6087226B
:102BE000835C8622825C0F2A13D8024686329B00C1
:102BF00004467034E469E3185C6B2488056F2C1973
:102C00000467DB6C1B88446FE31843671078401C33
:102C10001070002048800880B0BDC046B0B56A235F
:102C20000022C25401231B030D4C25689D432560DF
:102C30008723C35C8624045D0F2C0ED8044686349B
:102C400005468C359B002D68EB18DB6C1B88856F67
:102C5000EB1883672078401C20704A800A80B0BD42
:102C6000202C0140F0B583B004468020C143444D80
:102C70002961E9680143E960205A401E6862286AB8
:102C8000EA49014329620126F0063F490A680243E6
:102C90000A600968014002910298F0023B490A6803
:102CA00002430A603A4F3868C00027D430073968B9
:102CB000384A0A4002433A6037480068374903F00F
:102CC00007FE400001900198002817D00198401E8F
:102CD00001900198002811D00198401E01900198A0
:102CE00000280BD00198401E01900198002805D0C3
:102CF0000198401E019001980028E7D120465E30DF
:102D0000214688313B68E84A13409B1818333B60E2
:102D10003B68002B08D53B68002B05D53B68002B92
:102D200002D53B68002BF3D43B68134033433B6030
:102D30003A46083A1368DB0708D11368DB0705D168
:102D40001368DB0702D11268D207F1D02246823223
:102D5000B74BDA6038379F605A68B64F1740FA1C95
:102D60005A601A6832431A60B202E26700228A701F
:102D70000A80028028683043286003B0F0BDC04656
:102D8000002C0140550500003C1002400C58014049
:102D900008240140E8FFFF6F5C040020400D0300A1
:102DA0008A21415C00290ED001468A3100220A7036
:102DB00002218922825C002A03D08930002202701D
:102DC00040310846704700218922825C002AF4D1F4
:102DD000F7E78B21425C01468931002A03D00120AC
:102DE0000870002070478C3000687722825C022ACD
:102DF000F5D1426803699362826843699362C2684D
:102E0000806990620120087000207047FF21023124
:102E10008A2281528C21415809684A6C01239B0205
:102E200013434B646830704780B58721415C6A2248
:102E3000815401218902C1678021415A491E89B20A
:102E400000F060F980BD70B54621425A8021415A98
:102E50008B1A9DB203468033DB6866241C5BA54257
:102E600008D902466A32042313704A1E91B200F058
:102E700049F970BD064646367688961BB6B26D0097
:102E8000AE4206D966335988521A91B200F03AF927
:102E900070BDA21893B28B42E8D30123DB02C36753
:102EA000D24349008A1891B200F02CF970BD6E220D
:102EB000012383540A6802674A6842678968816708
:102EC00070470000F0B581B06B210022009242549F
:102ED0008B490C1F256801239D432560DC034D6B46
:102EE000A5434D638B24045D8830002C0DD14468CC
:102EF0007725655D022D08D165682669AE62A568F3
:102F00006669AE62E568A469AC62494A1468022643
:102F1000B4431460634C271F3A689D4D154010352B
:102F20003D6022689A432260414A121F1660224681
:102F30000C3A0425156037229201256895432560D7
:102F4000009A0270D84308600A68D20708D10A685C
:102F5000D20705D10A68D20702D10A68D207F3D096
:102F6000086001B0F0BDC046F0B56B2100224254AC
:102F70008021425A530862494B628B62CB62521FD6
:102F80000A63803001220272D3430B600C68E407AD
:102F900008D10C68E40705D10C68E40702D10C687D
:102FA000E407F3D00B6094024D6B25434D63D403CB
:102FB0004D6B25434D63C0687724045D022C14D10A
:102FC000046945680E69194F3E4207D0AC618468B8
:102FD0004569A561C4688069A06106E0AC62846847
:102FE0004569A562C4688069A06211480468944379
:102FF000046044680F4D2540AC1C446004681443D1
:103000000460284C25460C3D04262E602568154397
:103010000227BD432560041F266004683C4304600A
:103020000B60081F016811430160F0BD55050000E9
:10303000080002400000FFFFF0B581B0C26F03211D
:103040008B0218490C689C4314430C603722920190
:103050000C68944301239A020092A41840340C6037
:103060006A24045D8C2545592E197127F65DB6003A
:103070000F680422974337430F60A200AA18D26951
:10308000CA611A032A4B1C6814431C60091F0A6892
:10309000AA4B13401A1D0A600099C167683001B03D
:1030A000F0BDC0460C240140E8FFFF7F10B56B2245
:1030B00001238354DC43124A146051629162D1624D
:1030C0008C301168C90708D11168C90705D111688A
:1030D000C90702D11168C907F3D0D903536B0B4359
:1030E000536300687721415C022908D14168026975
:1030F0008A61816842698A61C1688069886110BD9E
:10310000102C0140C28F0A4B5A614022825A9A61A8
:1031100040304288DA61196219688288012A03D135
:103120000021818001207047C804C00F7047C0464D
:10313000202C014010B5EB490A78062050430818AE
:10314000037E002B22D0920089188A68116804231C
:103150000B60CB680324A343CB60CB683724A40166
:10316000A343CB604B697024A343946824011C43A0
:103170004C61127901231C4694406F4A22408A62B6
:1031800043768868D84A0240101D886010BDC0464A
:10319000E8FFFF7FF0B585B0062319464143D14CC7
:1031A0006218157E002D7BD11546183504952646EC
:1031B000183671180D1D029503914F1D217E0029AF
:1031C00008D0657F0021854214D9019600912146DF
:1031D0001D313AE00425A17F00290FD12421615C33
:1031E00000291AD12A21615C002925D1042D3BD167
:1031F000207048E00D46A17F0029EFD02321655CB7
:103200000121854204D901960091214623311CE019
:103210000D462421615C0029E4D02921655C02214E
:10322000854204D901960091214629310DE00D46D1
:103230002A21615C0029D9D02F21655C03218542B8
:103240000FD90196009121462F313D70029F009EBB
:103250003E7008705D4361190877049D039F019ECD
:1032600013E00D46042DC3D001962E46194669433E
:10327000019D69184D793D70029F3E70019E487115
:103280005D4371190871049D039F0021797001212C
:10329000297021784B43F1184978012900D020701A
:1032A0008821244B595C002903D0508B80B205B093
:1032B000F0BD8000201881680868C3680325AB430F
:1032C000C360C3683725AD01AB43C3604369702554
:1032D000AB438D682D011D434561097901231D46CE
:1032E0008D401549294081620421016081687E4D2D
:1032F0000D40291D81600168490708D4016849070C
:1033000005D40168490702D401684907F3D5006C68
:103310005083022151762578AD006519AD682D687E
:10332000527F2270EA681A438A43EA6080B205B08D
:10333000F0BDC046C4010020FFFF0700E8FFFF7F8B
:10334000B0B5684D6878012817D1AC782046FFF7F2
:1033500021FF0146A880062060432818407E0028EF
:1033600001D002206870E0002818036B002B04D005
:1033700000226A70426B20469847B0BDB0B55948EC
:10338000027891004118896809680B680624544343
:103390000219547EFD252C420DD0042423400AD06E
:1033A0001346193302241C700B6C5383CB68012520
:1033B0001D43A543CD60517F0170B0BDF0B5494AB2
:1033C00095686B1E294699410023002D03D12C4698
:1033D000002D03D10AE0DC43002D07D006792F79B8
:1033E000B74203D106682D68B54249D0002904D1FF
:1033F0002146D368002B04D104E00121D368002BBF
:1034000000D02146002B07D004791D79A54203D1B5
:1034100004681B68A34232D0CBB2042B04D80C46FC
:103420001369002B04D104E002241369002B00D09F
:103430000C46002B07D001791D798D4203D101681C
:103440001B688B4249D0E1B2042904D82346516954
:10345000002904D104E003235169002900D0234648
:1034600000290DD004790D79A54209D104680968B5
:10347000A14205D10323D9B203292CD803E00123AB
:10348000D9B2032927D88C001419A060CC001519D3
:1034900000242C6300688568ED0716D18668124DFC
:1034A0002E407619183686608668002E08D5866804
:1034B000002E05D58668002E02D58668002EF3D42E
:1034C00086682E4001253543856006204843101844
:1034D0004377047603770846F0BD0223D9B2032967
:1034E000F9D8D0E754060020E8FFFF7F80B5826856
:1034F000C168022903D303699A18491E05E001290E
:1035000004D1416842694A430021C1608260416937
:10351000104603F0FFF980BDF0B583B015460F46A5
:1035200004468068616903F0F5F9002D27D006464E
:103530000295381A019002F067FD0546304602F008
:1035400063FD0090384602F05FFD6760854200D35E
:1035500005460098854200D3054665616E43A66026
:103560002168029848437D21C90003F0B1F901990F
:103570006943451C0846294603F0CCF907E0384664
:1035800002F042FD60614743A76000252846E560E0
:103590002061012003B0F0BD002101224160816063
:1035A000C160016142617047C1684842484170474B
:1035B00038210140082905D0182905D0102905D146
:1035C0000220704701207047042070470020704798
:1035D00038220240102A1AD1072290433A4A801812
:1035E0000622D041132812D878440079400087443D
:1035F0000912181E242A30363C42484E0E0E5459E9
:103600000E0E5E63324840680860002070472D4807
:103610000860052070472E484068801C0860002024
:1036200070472B484068001D0860002070472848FC
:103630004068801D086000207047254840680C30B5
:10364000086000207047224840680E300860002063
:1036500070471F48406810300860002070471C48C1
:1036600040681230086000207047194840681630E2
:103670000860002070471648406818300860002035
:103680007047134840681A3008600020704710489F
:1036900040681C300860002070470C48001D08601E
:1036A0000020704709480C30086000207047074828
:1036B00070300860002070470448723008600020B5
:1036C0007047C0461C18002030F8FFFFFC020020A5
:1036D000FC170020F0B58BB006460020F081B789BA
:1036E000002F05D00D4600907368B268029616E070
:1036F00001200BB0F0BDD248FEF701FA069A000C8B
:103700001080049B9B1CF0890019F081059D2D1BE6
:10371000A0B21218BF1E380401D100F01CFC0692A2
:103720001988072038220A40083AD208042A01D909
:1037300000F012FC81430595049352007A4492886C
:103740005200974404001600F100090150012804BA
:1037500001D100F003FCC82900D193E1882900D1F0
:1037600094E1482901D000F0FCFBB548FEF710FABF
:103770008FE1A8B2022800D2F0E390390620C141BF
:103780000520622900D9E7E30224890001A25158EB
:10379000069A8F4625390008C33D0008C73D00083A
:1037A000593F0008CB3D0008D13D0008D73D000837
:1037B000593F0008DB3D0008E13D0008E73D0008F7
:1037C000F33D0008033E0008593F0008593F000838
:1037D000133E00081F3E0008593F0008593F0008EB
:1037E000593F00082B3E0008353E0008593F0008AD
:1037F000593F0008593F0008593F0008593F000849
:10380000593F0008593F0008413E0008233900088D
:103810004B3E0008593E0008753E00087F3E0008F8
:10382000873E0008913E0008993E0008A33E00082C
:10383000B53E0008BF3E0008593F0008593F000848
:10384000C73E0008D13E0008DB3E0008E53E000808
:10385000EF3E0008FB3E0008593F0008593F0008B2
:10386000593F0008593F0008593F0008593F0008D8
:103870002139000821390008593F0008593F000844
:10388000593F0008593F0008593F0008593F0008B8
:10389000593F0008593F0008593F0008593F0008A8
:1038A000593F0008593F0008593F0008593F000898
:1038B000593F0008593F0008593F0008593F000888
:1038C000593F0008593F0008593F0008593F000878
:1038D000053F0008093F00080D3F0008113F0008A0
:1038E000173F00081D3F0008213F0008273F000840
:1038F0002D3F0008593F0008593F0008593F000874
:10390000593F0008593F0008593F0008593F000837
:10391000593F0008593F00083B3F0008493F000855
:10392000EFE6E8E647487CE2A8B2042800D215E3B7
:103930000520D72900DD94E0182900D164E1582939
:1039400000D165E1982900D006E33D48FEF719F95A
:10395000069A0621414361E120390620C14103292D
:1039600000D9FEE2039749007944898849008F44D1
:1039700003009400CE00060133490C78002C00D1DE
:103980003EE12AB2012100238DB2954200DBE3E241
:10399000069DEC54ED182C4CE7187E784C1C002E3C
:1039A00000D103E2A4B2944200DBD5E26E70BE788F
:1039B0008C1C002E00D1FBE1A4B2944200DBCBE2D0
:1039C000AE70FE78CC1C002E00D1F3E1A4B294427C
:1039D00000DBC1E2EE703C791B1D091D002C029E2C
:1039E000039FD1D18FE028390624E14105200D291C
:1039F00000D9B1E23546069EB31C890002A2515897
:103A000032462E468F46C0464D3A0008393C0008E3
:103A10004F3C0008613C0008593F0008593F00082E
:103A20007F3C0008A33C0008BD3C0008593F00084B
:103A3000593F0008593F0008593F00088B3D0008D6
:103A4000FC17002088010020EB6C00080A20108081
:103A5000059880B20C2800D280E20A221846FD495F
:103A600009E1D82900D1DCE02322D200914200D123
:103A7000DBE0FB4A914200D06EE2FA480068FEF7B4
:103A8000F6FDD5E0F84800F0C5FE02E0F748FEF785
:103A90002DF8069A1070012433E6F5490C78002CB5
:103AA00000D1ADE02AB2012100238DB2954200DBA6
:103AB00052E2069DEC54ED18FC4CE7187E784C1C45
:103AC000002E00D172E1A4B2944200DB44E26E7099
:103AD000BE788C1C002E00D16AE1A4B2944200DBB7
:103AE0003AE2AE70FE78CC1C002E00D162E1A4B2A6
:103AF000944200DB30E2EE703C791B1D091D002C66
:103B0000029E039FD1D1069AD0180C4656E1E8498F
:103B1000096801910C78002C72D02BB2012200218F
:103B200095B29D4200DB17E2069D6C546D18019C16
:103B300067187E78541C002E00D137E1A4B29C4255
:103B400000DB09E26E70BE78941C002E00D12FE1DC
:103B5000A4B29C4200DBFFE1AE70FE78D41C002EC4
:103B600000D127E1A4B29C4200DBF5E1EE703C7984
:103B7000091D121D002C029E039FD1D13BE0FA4982
:103B80000A6824210192545C002C39D02BB2012206
:103B9000009995B29D4200DBDEE1069D6C546D18E4
:103BA000019C671825243E5D541C002E00D1FDE0C9
:103BB000A4B29C4200DBCFE16E7026243E5D941CD3
:103BC000002E00D1F4E0A4B29C4200DBC4E1AE7050
:103BD00027243E5DD41C002E00D1EBE0A4B29C4211
:103BE00000DBB9E1EE7028243C5D091D121D002C9C
:103BF000029E039FCDD1069B581814461A46DDE05D
:103C00000124069A1046D9E0D848FDF773FF0FE06B
:103C1000D648FDF764FF06214143069A116004244B
:103C20006FE5D74801F09BFA02E0D54801F0A6FA0B
:103C3000069A1060042464E53C201080059880B248
:103C40003E2800D28AE1CD4801683C2212E00E20D5
:103C50001080059800B2102800DA7FE1C64807E01E
:103C60000E201080059880B2102800D276E1C1485D
:103C700001680E221846FCF7C1FA069A93E0BB4E83
:103C80003046FDF778FF604306994880000C06999E
:103C9000888030462E46FDF76CFF069AD08014804F
:103CA00081E004201080B14C2046FDF767FF0699A3
:103CB00048802046FDF75DFF069A73E028201080BB
:103CC000059880B22A2800D248E1002107AAA84816
:103CD000164600F0A2FD02200390305E6043069974
:103CE0004880000C069988800798069908810898F2
:103CF0000699C88001219E48324600F08EFD089842
:103D00000699C88107980699088232460196039E53
:103D1000905F604306994881000C06998881944819
:103D2000314600F07AFD08980699C88207980699EE
:103D30000883019A905F604306994882000C0699B7
:103D4000888203218A4800F068FD08980699C88394
:103D5000079806990884019A905F60430699488302
:103D6000000C06998883042181482E46154600F0F0
:103D700054FD069A0898D084079810850398285E09
:103D800060435084000C90840DE004201080774C38
:103D90002046FDF7E8FE069948802046FDF7E3FE41
:103DA000069A000C90801088841CAAE4681C02E02B
:103DB000A81C00E0E81C029E039F069A00210170E7
:103DC0009FE4724827E071480FE06E48006828E0E1
:103DD0006C4800681FE06B4806E06B48006820E014
:103DE0006948006817E068480068FEF79BFB069A80
:103DF00086E4634807A90AAA01F0C3F9069A07985E
:103E00007EE45F4807A90AAA01F0BBF9069A0A985E
:103E100076E45B483430FEF78AFB069A70E4584833
:103E20003430FEF78BFB069A6AE45A4801F054FFDF
:103E3000069A65E456480068FEF743FB069A5FE47D
:103E40004A48FDF75CFE069A5AE44848FDF75DFED5
:103E5000069A55E4067600084448FDF756FE4DE400
:103E6000581B00004C05002070020020FC170020A9
:103E7000DD6C00083D48FDF770FE069A40E43B48C3
:103E8000FDF76BFE3AE43948FDF76DFE069A37E41C
:103E90003648FDF768FE31E43448FDF785FE069AA2
:103EA0002EE43248FDF780FE28E4C046DD6C0008B1
:103EB000540200202D48FDF771FE069A20E42B489D
:103EC000FDF76CFE1AE42E4800F0A4FD069A17E4F4
:103ED0002B4800F0A5FD069A12E4294801F043F9A9
:103EE000069A0DE4264801F03EF9FFF707FC244846
:103EF00001F033F9069AFFF703FC214801F02DF990
:103F0000FFF7FCFB214821E0204818E01F480FE0A4
:103F10001D4800681AE01C48006810E01A4806E0D6
:103F20001848006812E01748006808E01548006863
:103F3000FEF7FBFA069AFFF7E3FB11483430FEF771
:103F4000FBFA069AFFF7DCFB0D483430FEF7F9FA6E
:103F5000069AFFF7D5FB00200BB0F0BD08200BB090
:103F6000F0BD05200BB0F0BD2C010020FC17002097
:103F700070020020EC000020080000202C0100202E
:103F8000FC0200205405002050050020880100207C
:103F90005C0500200C000020F0B591B00E460446F0
:103FA0000022C2810C20215E012900DA7EE3029208
:103FB0006568A76800200346039004900A97069658
:103FC00027462888072638220240083AD208AC1C27
:103FD00009948C1E042A0893079428D8B043C0463D
:103FE0007A441279520097440224506FB800042298
:103FF000012148280C9100D1BAE0C82800D1B7E0CF
:10400000882800D023E109980078032800D1C1E175
:1040100004283C4600D0F0E17A4D2846FDF7BAFD71
:104020000146002228460B92FDF734FDBDE10B96B8
:104030009BE009990E8800250222734988420C9260
:1040400000DD97E07149884200DD03E17049884254
:104050003C46059600DD45E1FF21903188420A9FEC
:104060000B9500DDCCE19028069E00D1ABE2D02874
:1040700000D1AEE211210901884200D05DE205982D
:1040800001B26448FEF769FA91E118380621C84187
:10409000042800D913E1042102280C910B913C461D
:1040A0000A9F069E00D082E100220998805E5A494C
:1040B0004843C10F000C401801B252480B92FDF763
:1040C000DFFC04200C9072E109980378002B00D1EA
:1040D000B7E020B20590AA1D01203C460A9F069E2B
:1040E00085B204210B9105998D42EBDA151F2B70D7
:1040F000411CD31E1D78002D00D1EDE03746264629
:104100000C918CB205998C4200DBDDE01D70841CA3
:10411000931E1D78002D00D1DAE00C94A4B205990D
:104120008C4200DBD0E01D70C41C531E1D78002D96
:1041300000D1CDE00C94A4B205998C4234463E46A1
:104140000A9F00DB33E11D70151D1378001D002B45
:104150002A46C5D12B1F0146BEE022B269888E1CBB
:10416000B3B2934226DD0A200B9003980C901BE11A
:104170000B9219E12949884200DD86E028498842EE
:104180003C4600DDC6E00596264988420A9F00DDD0
:104190004DE19D2109018842069E00D187E1A121C0
:1041A0000901884200D182E1A5210901884200D19C
:1041B0007DE1C2E128380622D04114283C460A9FFE
:1041C0000C96069E00D9B8E104220B924000C0462E
:1041D0007844808840008744EA00EA00EA00EA0068
:1041E000B001B0012700B301BA01B001B001B001C4
:1041F000B001E601B001B001B001B001B001B00101
:10420000F001C046FC170020CF0900008F04000019
:104210008F02000088010020AB2A00004F1400002C
:10422000CF0B00008F0A0000A888E988090408184D
:10423000062102F06FFB01B22A89FC48FDF720FC41
:10424000B8E1012103463C460A9F069E44E0052052
:104250000B90A9E0FC4988423C4671DCFB4988424E
:104260000A9F00DDF1E00596492109018842069E7A
:1042700000D1B4E159210901884200D15AE15D2100
:104280000901884200D155E157E1F14988423C4695
:104290000B9505966ADCEF4988420A9F00DDE2E053
:1042A000FE498842069E00D19DE1FE49884200D128
:1042B0009BE1FD49884200D03FE1F948E1E005205B
:1042C0000B9004200C906FE034463E460A9F6EE04F
:1042D000214634463E460A9F0C9100201870042067
:1042E0000B9064E0F64988420A9F00DDCDE0292169
:1042F00009018842069E0B9500D178E12D21090124
:10430000884200D175E131210901884200D014E1D1
:10431000FE4886E0F94988420A9F00DDD6E0BD21CB
:1043200009018842069E00D104E1C12109018842A9
:1043300000D1FFE0C5210901884200D1FAE0FCE08C
:10434000EF4988420A9F00DDD0E0852109018842BB
:10435000069E00D1EEE089210901884200D1E9E002
:104360008D210901884200D1E4E0E6E0D949884284
:104370000A9F00DDD2E0DB498842069E00D13AE187
:10438000D949884200D139E1D849884200D0D4E0E7
:10439000DD4875E0CB4D2846FDF7F3FB01460022D2
:1043A00028460B92FDF76CFB3C460A9F069E079839
:1043B0000C9A801A01B2089B180602D1002900D17C
:1043C00062E1300400D176E10B9D3D70E089401C34
:1043D000E081002D01D001200490072D00D155E18E
:1043E0000A2D00D152E15B1C90B2099A15187F1C6E
:1043F000761E002900DDE1E548E100200B90D4E7BE
:10440000192109018842069E00D1FAE01D21090107
:10441000884200D1FCE021210901884200D08CE0D3
:10442000B9480068059909B2FEF797F8BFE7A921D6
:1044300009018842069E3AD0B5210901884279D007
:10444000B9210901884275D077E0792109018842B4
:10445000069E6FD07D21090188426BD08121090120
:10446000884267D069E0A2498842069E00D1D6E022
:10447000A049884200D1D5E09F4988425DD1A34838
:1044800000680599FEF76BF891E73521090188422C
:10449000069E0CD039210901884200D1C8E045218F
:1044A0000901884249D10B9596483430B2E00DA9F4
:1044B00010AA9448154600F064FE00200B902A5E76
:1044C000059801B28F4800F000FF70E7C92109018B
:1044D0008842069E2ED0E521090188420B9500D125
:1044E00065E7E9210901884227D160E70596912116
:1044F00009018842069E1DD09521090188420B952D
:1045000000D1A9E099210901884216D16D4D2846B4
:10451000FDF729FB0599090480B2A4E06E498842A1
:10452000069E00D1A4E06D49884200D1A6E06C4906
:10453000884202D104200B9039E705200B9036E722
:104540000420295E2A895F48FDF7A4FA32E00A2098
:104550000B90480700D02AE70806C10E052900D9AC
:1045600025E7002926D00A3500200B90034601914B
:1045700005930520C043285E54494843C10F000CF1
:1045800040180DAA5080A81E0088908028881080AE
:10459000D9B24F4800F07CF9059B019908355B1CA6
:1045A0009942E5D103E7A888E98809040918454834
:1045B000FDF70CFB00200B90F9E6291D4248FDF7A2
:1045C00013FC0B90F3E6059801B25148FDF7E4FFA8
:1045D000EDE6059801B24E48FDF7C6FFE7E60B95FC
:1045E000484834300FE04A484AE0494842E04748EA
:1045F00008E046480DE04448006841E04248006851
:1046000038E041480068059909B2FDF7C5FFCEE6DC
:104610003D480068059909B2FDF7A6FFC7E63B488B
:1046200000682DE03948006824E0C046FC170020EF
:104630000DA910AA33480D4600F0A3FD00200B90F1
:10464000295E059802B23DE74F0800008F07000081
:10465000CF1500000F1500001A4D2846FDF783FA0C
:104660002C490840059941182846FDF7AFFA9EE607
:10467000244834300599FDF779FF98E62148343015
:104680000599FDF78BFF92E60B980490049800289B
:10469000029A0BD0C0B211B0F0BDC0465014000059
:1046A0008801002090140000D0140000E281104620
:1046B000C0B211B0F0BD0820C0B211B0F0BDC0460C
:1046C0004F030000FC170020F0000020AB2A000080
:1046D00070020020CF180000D01800001019000050
:1046E000581B0000D01500001016000050160000E6
:1046F0001015000050150000901500008F0C0000F0
:104700000F090000FC020020540500205005002085
:10471000880100200000FFFFF0B583B0009104463F
:104720005320002525542246533201920120155270
:10473000E1805571A66EE06E029001F06FFB0421DE
:10474000304600F06AFA6088009F784301B2029810
:1047500001F0C0FB304629462A4600F0E9F9208ADC
:10476000784301B2A289304600F0E2F9E08978434B
:1047700001B2A289029801F062FB0198057160699B
:10478000A060A189208848437D21C90002F0A0F8DB
:10479000401CA08003B0F0BDB0B505468088012460
:1047A000002805D0401EA880000401D02046B0BDDE
:1047B000A868002822D08188EA884A4311B202887A
:1047C000A86E00F0B5F9E888AA685188414309B29B
:1047D000E86E128801F033FB5820295C491C2954EB
:1047E000A8688168A9602988008848437D21C9009C
:1047F00002F06EF8401CA8802046B0BD0020B0BD7D
:104800004921415C4930C07B884201D20020704779
:10481000012070474821405C70470C234B43C0186F
:10482000018A9180C068106001207047B0B554259E
:1048300000244453049D074668372EC74269014649
:104840004831002A0FD09268002A0FD09268002ABF
:104850000FD095680422002D134600D00523002DAB
:1048600009D1032207E00123224604E002230122AA
:1048700001E0032302220B700C235343C21854613E
:104880000088024A4243D00C8873B0BDCDCC0000F2
:104890000C234B43C018918801821168C16001202C
:1048A00070470000F0B585B004462A20205CFEF772
:1048B00071FC02462948824249D026462936636A5D
:1048C0003078049040001A52208B0390C7B2002524
:1048D000002F28462ED0032038400290781E03284F
:1048E0000195009302D20021084610E0FC20074009
:1048F00000211D4608462B88C0186B88C018AB885D
:10490000C018EB88C0180835091D8F42F3D1029BEF
:10491000002B019D009F0DD049007B5AC018029BBF
:10492000012B07D0C9191F464B88C018022F01D090
:1049300089884018A280039F394601F0C9FFE080B2
:10494000781E0499884201D908464D1C35702046CE
:1049500000F006F8208105B0F0BDC046FFFF000062
:1049600010B5C188838B428B9A4203D1914206D9FC
:10497000022010BD048CA14207D2042010BD008C7F
:1049800081420BD30020800010BD847F002C08D012
:1049900091420AD900218177022010BD01208000B8
:1049A00010BD9942E4D201218177002010BDB0B53D
:1049B000418B028C51184908028B002A16D0426A9A
:1049C000002311805C1C058BAC420FD251809C1CD3
:1049D000058BAC420AD29180DC1C058BAC4205D21F
:1049E000D18008321B1D048BA342EAD32922002365
:1049F0008354C1808180B0BD10B504460C30FEF7F1
:104A0000DDFC2A2160542046FFF7D1FF10BD0C21A8
:104A1000405E70470421405E70471021405E704741
:104A200080B51421415E0C22825E0348504301F0A0
:104A300071FF00B280BDC046FF7F0000B0B5C278F4
:104A40000378002593422C4600D31C46934200D2A3
:104A50005B1C495FCD134919694089B2858AA94217
:104A60001D4600D82546C48AA142194600D32946CE
:104A70001224045FE51364196C40A4B2058BAC42A8
:104A800000D80B460370D8B2801A411E8841B0BDD1
:104A9000F0B581B004461E48012101602078042849
:104AA0000AD004216658E16802290AD201290CD1F2
:104AB00061880E04002107E008216658E168022998
:104AC000F4D3A2699619491EE160032812D16069E6
:104AD000350CFFF79CFF0090291A09B2062779438D
:104AE0002069FDF765FD01046660A1607D430099C2
:104AF0004F4303E0A660300C00273D4605494F8335
:104B00008D8305498F804D8000B201B0F0BDC04655
:104B1000AC180020C4180020B806002080B5017829
:104B2000032903D100690021FDF715FD80BD0000B8
:104B3000F0B581B016460D460446007804280FD122
:104B4000204600F057F80746204807802820215EBD
:104B50000020A94202DCE18C8D4214DD01B0F0BDE1
:104B60006068070C19480780E18B00208D42F5DC56
:104B70002421615EA942F1DC218C8D4203DA2221DD
:104B8000615EA942EADB002E11D06580A08B46430E
:104B90007D20C100304601F09BFE411CE160E81B16
:104BA000000401F0B7FEA061012001B0F0BD207843
:104BB000032801D0082000E004202904215000200F
:104BC000E060A061012001B0F0BDC046981800204F
:104BD00010B504464069FFF71AFF0004606010BD7D
:104BE000C18D008E0004401870470621405E70475A
:104BF000406970470A21405E7047B0B5002343808A
:104C00002A24045D0470848D2404C58D2D04446021
:104C10008560C36010300EC0B0BD0022C26001705C
:104C200070474161704700218161C160704780B564
:104C3000006834300021FDF78EFC80BDB0B5F42152
:104C4000425C0146F431CB7E8C7EE51A4B6907D07D
:104C5000AD182C1B00DB25466C000419743401E0F0
:104C60000C4618340025645F520082187425525F88
:104C70009A18121B4A61898D0A41C281B0BD000099
:104C8000F0B587B00591044687204000225C20469D
:104C9000FC3003900026002A3746304602960694E0
:104CA00000D187E00325104628400490501E0328B9
:104CB0000192009002D20020074617E0FC2111402B
:104CC00022467A32002318461F46EE43965F05249B
:104CD000E443145F3C19A4190126F643965FA41916
:104CE000D65EA7190832001D8142EED1049B002B2D
:104CF000069C01990ED0400020187422825EBF18D5
:104D0000012B07D07622825EBF18022B02D07822B8
:104D1000805E3F1800290AD038460E4601F0FAFDA1
:104D200007460098032805D20020064622E000200E
:104D300006463FE0FC21314022467A3200231846E5
:104D40001E460524E443145FE41B6443A419EE43A8
:104D5000965FF61B764334190126F643965FF61BE1
:104D600076433419D65EF61B764336190832001D99
:104D70008142E6D1049A002A0BD04000069C2018FC
:104D80007421415EC91B49438E19012A04D101983F
:104D900010E00198069C0DE07621415EC91B494355
:104DA0008E19022A019A04D07821405EC01B40432C
:104DB0008619104601902146F5310491618B7943A3
:104DC000A0784843E16901F0A5FD617801F0A2FDFA
:104DD0000246039DA88A059900920A807F43029C9F
:104DE00021463A462346FBF7F1F94906C009471820
:104DF0003046019901F06CFD06460120BE42014695
:104E000000DB2146049C2170009A06998A81297A48
:104E1000002931D01146D01713184340E88B0022E7
:104E200083421146104624D2069A14467034AC4888
:104E300058431421515E01F06DFD697F4143CA174B
:104E4000920E891889114143C817800E08188011E5
:104E500040422A7F4243501802900020225E524373
:104E60000223E35E5B439A18029B9A4200DD012015
:104E7000049C2A6069602071E178002912D0BE424A
:104E800016DB0021069A014216D1A078401CA070C2
:104E9000E97EC0B2884211D30020A070D178117091
:104EA00007B0F0BD06980599FFF7C8FD07B0F0BD43
:104EB0000121069A0142E8D00020A0701046059911
:104EC000FFF7BCFD07B0F0BDF0B597B00446002079
:104ED000002C00D101E1002900D1FEE02046F43091
:104EE00016902E20255E7E4803466B43A76E7D4AB2
:104EF0009F421E4603DC16466E43B74201DCA6669F
:104F0000374611974927169E768D1596E66E9E4276
:104F100003DC5543AE422B4601DCE3661E46129687
:104F2000BD002C23E35E5843266E8642074603DC11
:104F300017465F43BE4201DC27663E461096651960
:104F4000019527467037119D159E35411495129D88
:104F50003541666E864203DC5A439642104601DCB8
:104F600060660646099605957D8014983880022073
:104F7000085E07902420205E08902020205E0F907D
:104F80002220205E0E902820205E0D900025485F94
:104F900003902620205E06902A20205E13900E208B
:104FA000265E0420205ECA8804920A890C928988B1
:104FB00002911699098D0B91618E0A9101990F78D2
:104FC000FCF7D4FE0196002E159504DAE94302148D
:104FD000002F04D104E001210214002F00D079B287
:104FE0000B46149D6B431B04DB135A43121400B28F
:104FF000059D694309044942C91341430814811AB4
:1050000020463430FDF7D4FA16998A7E0978491C77
:10501000CBB29342159A00D00A461592D1B24900FC
:10502000611874228B5A169F3B8388522082139AF0
:1050300001994A4313922BB205930A990B415343AA
:10504000109A0B990A410299551A2DB22F460699CA
:105050004F430290119EBF19FB18A366039B0C9847
:1050600043431B140D9843430E98454310982D1845
:10507000ED1812B20F984243149803B208980746ED
:105080005F43BA18AA1A22660A9A1341139A534325
:10509000099F3A460B9D2A41049D551B2DB2694339
:1050A000129E8E19F31AE366079B0C994B431B144F
:1050B0000D994B430E994D43ED19EB1812B20F9910
:1050C0004A43059948438118591A6166A188029894
:1050D0000818A0801699159A0A7000B217B0F0BD92
:1050E000FF7F00000180FFFF70B50446F620002519
:1050F0002552FC2025509120400025522120C0003F
:105100002550012000022550E581A58025666566B1
:10511000A566E5662046F630458087204000215C84
:105120002646F436002904D0204674304900FBF7A7
:10513000C2F835833570343420462946FDF70BFA22
:1051400070BD912149000068012242547047FF213F
:1051500024310068012242547047006F70470121DA
:1051600009024058704747218900415A026E406E3B
:105170000A4192B20841000480187047FC2140584F
:105180007047438C0B80C08C10807047F0B581B0A5
:1051900004468B204000205CF62160540026668681
:1051A0002046F630012787732E20255E19482946B0
:1051B00001F0B0FB01041AD00127411C89B2032978
:1051C00011D301B2890F411809B2890889B282B29C
:1051D000D20B801800B24010401CB61CBF00032840
:1051E0000846EAD202E0012006437F006686278651
:1051F00038B245430849284601F08CFB60852046BB
:10520000FFF772FF20463430FDF79DF900206082E1
:1052100001B0F0BD5EEA0F00BE280000F0B54522E7
:1052200092008418FF222432825C002A01D08289F5
:105230000A800346F533A27B002A05D000210170C5
:105240000122DA701046F0BD0C22865E00228D5ECF
:1052500037466F43012F2ADB002D20D4197800290F
:1052600023D0B1B20EB2F6138919714026888FB2DD
:10527000B74210D99E7F6E43370FF619361109B227
:1052800036B28E4207DC5E7F6E43350F75192D11E5
:105290002DB28D420DDA00225A701046F0BD6D42DB
:1052A0000D802DB219780029DBD100225A701046EA
:1052B000F0BD5978491C5970A478C9B2A142F6D3FF
:1052C000BCE70068F521405C7047C28441847047A8
:1052D00080B534300021FDF73EF980BD70470000F5
:1052E00010B50C4C2078022804D1FBF787FDFBF7A2
:1052F0002BFE0020401C207007480188142904D090
:10530000491C0180FCF7CCFF10BD01210180FCF796
:10531000C7FF10BD580400203218002070B5384A6D
:105320001068022108430523984310601468072081
:105330000440022C0BD014680440022C07D01468DF
:105340000440022C03D014680440022CEED1012446
:1053500025022C4A16682E431660A50216682E42B6
:1053600008D116682E4205D116682E4202D1166861
:105370002E42F3D0D568244E2E40244D7519D560A9
:10538000250616682E4316602507D6682E43D6607C
:1053900064061568254208D11568254205D11568AF
:1053A000254202D115682542F3D00F2424029568C6
:1053B000A543956094680C439C439460936838219E
:1053C0000B40102B0BD093680B40102B07D0936829
:1053D0000B40102B03D093680B40102BEED1000331
:1053E0009168814391600A48FCF784F80320FBF739
:1053F00025FD002803D0EFF3108072B6FEE770BDE4
:1054000000200240001002408C80FF1F0208002094
:105410000090D0037047000080B50248FBF728FEDB
:1054200080BDC046D0050020B0B58C25184C605911
:1054300000680169C9070ED0C168C9070BD01549BA
:10544000FF3101612046FDF7F7FD13480168491C53
:10545000016060590068016909060DD5C168090637
:105460000AD50E4901220A700A498031016120469D
:10547000FDF7AFFC605900680169C90507D5C1682F
:10548000090604D5034901610148FDF7BFFCB0BD21
:10549000C4010020FFFEFFFFBC180020C80600204A
:1054A00080484188484248417047C04680B57D48A1
:1054B0008068FDF707FD7C4880210022FCF707FB90
:1054C00080BDC046F0B589B0764C608DA18D0904D1
:1054D000081805907448407E132808D1E068FEF74C
:1054E00063F8002803D1E068FEF700F820845648EE
:1054F0000068FFF77DFB0746FFF78CFA054604902E
:105500003846FFF78AFAA06808A9FDF7E5F8FDF725
:1055100011FE0898FCF7A4FB03902946FCF7C2FB98
:105520002021625E01B206460190511A4748006888
:10553000FDF73EF805462220205E3114411A44480A
:105540000068FDF735F8A9B2000441184148FBF79F
:10555000A1FB05463846FFF760FA28462646049C1C
:105560002146FCF7EBFB0746FDF708FFB06839461C
:10557000FDF7B6F80290380CB0857785280C308599
:10558000F5843486019A110CF183B283324F78820C
:105590003D82F981BA81089D3561039870613D8033
:1055A000280C788028142D4C60430014FAF7AEFEC6
:1055B000B86028B260430014FAF7A8FE7860308C17
:1055C000B8820498F883708CF8820298012805D17B
:1055D000354801210022FCF77AFA25E034462048BC
:1055E000FFF70EF90646606906901E4800F079FB49
:1055F00005A90881F54D2846FFF766FC2846FFF708
:105600001DFB002E02D1F148FFF762FEF248407EFA
:10561000132801D0042807D1EC48FFF7FBF908A9AB
:105620000880EF4800F0A4FB0F480168491C0160A6
:1056300029200E49085C002802D00C48FCF746FCE3
:10564000002009B0F0BDC0465805002054050020D8
:105650005005002038000020C4180020442F00000E
:10566000700200200C000020D4060020F000002072
:10567000B0B50C468D00E34840198068FDF722FC68
:105680002046FBF785FBD3484059FCF7EDFF192076
:10569000400100F00BFA6001CF490818082141765B
:1056A000B0BDC0461C060020FC170020F0B585B038
:1056B00004A900240C80C548FFF7E2FA01900625F2
:1056C00004986843C2490883F54E3068FCF7B4FF7C
:1056D000F14F3846FCF70CFA002803D00A20787600
:1056E00005B0F0BD0095019F3546EB4E3046FCF706
:1056F0004DFA002803D00B20707605B0F0BD707E07
:105700001328EDD878440079400087440A09090934
:10571000300939094209535809090909616A0973AD
:10572000DEE7DD48007EFD2101400129D8D1DA4CB9
:105730002046FCF7F0F90146AA48FEF7EDFFE04DE0
:10574000A8686E21415C002900D12CE102464E324E
:1057500001211180FCF79EFFA8680021FDF7A6FC3F
:10576000142000F09FF91020607605B0F0BDCA4803
:10577000007E052847D10021FFF77AFF05B0F0BD74
:10578000C548007E05284DD10021FFF771FF05B007
:10579000F0BD00F08FF90028A2D090480068904E2C
:1057A0003146FFF73EFA304600F038FBBA48048332
:1057B00005B0F0BD0B20B849487605B0F0BDB6483D
:1057C000007E022800D08BE7B348048305B0F0BD0B
:1057D000B148007E052835D10021FFF749FF05B00B
:1057E000F0BDAD48007E05284BD10021FFF740FFFA
:1057F00005B0F0BDA848007E052858D10021FFF76C
:1058000037FF05B0F0BD7748FEF7C6FF002800D18E
:1058100083E072480068FFF73BF9A9490884888C47
:1058200048847FE09C48FCF7F6F80020FBF79EFADE
:10583000002F00D054E7984820210022FCF747F9B8
:1058400005B0F0BDFFF72CFE002800D148E79C4DC5
:10585000A868FDF737FB3420012129545F48006810
:105860005F49FFF7DEF95948FFF73EFC0020FBF7E0
:105870008FFA042088494876A868FDF727F805B014
:10588000F0BD8F4EB0680121FCF704FF002800D165
:1058900026E7814F387E032800D08BE02046FBF7B7
:1058A00077FA2868FCF7E0FE3C8305B0F0BD4D4870
:1058B000FEF772FF00286FD0494D02A9284600F07C
:1058C00012FA0646284600F021FB002E02D10028DD
:1058D00000D105E720207A490E5E434D2846FCF7AB
:1058E00029FE01B271432846FCF735FE3B4E306875
:1058F0003649FFF796F900252846FBF779FA28463E
:10590000FBF734FA3068FFF763F9634C2046FCF785
:1059100082F80098607605B0F0BD5F481021002243
:10592000FCF7D5F82E4803A900F0DDF92D48FEF765
:1059300067FF002800D1D3E6244E03A93046FFF7C5
:105940006DFC0546544C2046FCF7E5F841B2304664
:10595000C046C0462248294600F0C7FA002D00D1B3
:10596000BEE61A48FFF756F80146554E7069FCF737
:1059700099F90546F068FDF70FFE2020315EF068CA
:105980000022FDF7C9FD29B2F0681922FDF7C4FD18
:105990001320607605B0F0BD3F4810210022FCF7CF
:1059A00096F805B0F0BD0021FCF774FE112060767A
:1059B00005B0F0BDB0680021FDF778FB142000F0C1
:1059C00071F81020787605B0F0BDC046FC020020CA
:1059D000C41800204C050020FC17002058050020AA
:1059E0009C040020700200208801002080B534480B
:1059F0000078012804D1002000F006F8FDF7A0FC93
:105A000080BDC0461C060020F0B583B0044685006A
:105A10001E484059FCF734FD064608200190864395
:105A2000274802954719B868FCF730FE054635430C
:105A3000002C01D0294606E01548FEF733FF014649
:105A4000019881432943134A4A406001124B1D18B3
:105A50002846FCF73CF82846FCF74CF8002813D001
:105A600008373868FCF72EFF29200C49085C00280D
:105A700002D00A48FCF71AFB2046FBF789F90848D0
:105A800002994058FCF7F0FD03B0F0BD5C05002022
:105A90000C000020FFFF0000FC170020F000002099
:105AA0004C050020064948807047C0460449C8801C
:105AB0007047C0460248C188484248417047C046C6
:105AC0001C060020006810210162EFF31082012300
:105AD00083F3108803680B43036082F310887047D8
