:020000040800F2
:10000000281F002081010008F1320008FF200008AD
:1000100000000000000000000000000000000000E0
:10002000000000000000000000000000B1600008B7
:10003000000000000000000019370008B56000084B
:10004000A501000800000000A5010008A5010008A6
:10005000A5010008A5010008A5010008A1170008D6
:10006000000000006D17000881170008A5010008B6
:10007000A501000809620008A501000800000000B1
:10008000A50100080000000000000000E961000870
:1000900000000000A5010008F9610008A5010008A2
:1000A000A5010008A5010008A50100081D6A0008B7
:1000B000ED6B0008000000000000000000000000E0
:1000C00000F002F800F030F80CA030C8083824180E
:1000D0002D18671EA246AB4654465D46AC4201D180
:1000E00000F022F87E460F3EB6460FCC0126334282
:1000F00000D0FB1A3343A246AB461847808E00005F
:10010000A08E00000023002400250026103A01D311
:1001100078C1FBD8520700D330C100D50B607047BF
:100120001FB51FBD10B510BD00F0D1FD1146FFF782
:10013000F7FF07F065F900F0E9FD03B4FFF7F2FF00
:1001400003BC06F02AFF000070B505460C461646B3
:1001500002E00FCC0FC5103E102EFAD2082E02D3AB
:1001600003CC03C5083E042E07D301CC01C5361FBE
:1001700003E021782970641C6D1C761EF9D270BDD5
:10018000802040038830800201688022D2020A4326
:1001900002600848804708480047FEE7FEE7FEE7A0
:1001A000FEE7FEE7FEE7000004480549054A064B66
:1001B00070470000E5610008C1000008281A00200F
:1001C000281F0020281C0020281C002043435143E6
:1001D00030B55C18010C130C0D4692B25D4380B231
:1001E00051432C19054655430A0C09044D19624127
:1001F0005843010C00044019514130BDF8B5042AA0
:100200002CD3830712D00B78491C0370401C521E5C
:1002100083070BD00B78491C0370401C521E8307C8
:1002200004D00B78491C0370401C521E8B079B0F97
:1002300005D0C91ADF002023DE1B08C90AE0FFF73A
:1002400083FFF8BD1D4608C9FD401C46B4402C4341
:1002500010C0121F042AF5D2F308C91A521EF0D496
:100260000B78491C0370401C521EEAD40B78491CC1
:100270000370401C012AE4D409780170F8BD01E044
:1002800004C0091F0429FBD28B0701D50280801C02
:10029000C90700D00270704700290BD0C30702D0F5
:1002A0000270401C491E022904D3830702D5028034
:1002B000801C891EE3E70022EEE70022DFE770479B
:1002C000704770470246C80FC00781434B0030B5E6
:1002D0004B405B009B0D20D01923DB06C91801237E
:1002E0001B05994220DB0324A40704251346AB40D9
:1002F0000BD3002B04D1EB0613409B00E34204D444
:1003000001246407002312195941FF231B05994258
:100310000BD2C9000143500F09E0CB0204D50143C1
:100320000803024305D0054830BDFF21C905084335
:1003300030BD084607210905884330BD0000C07F55
:10034000F0B5F94D0C091E092C402E402F468BB0FC
:10035000A7437DD0B543FCD0002E7AD0002CFCD032
:100360000D465D40ED0F2543AC1BFF25AD04641920
:100370000894C502440DC9022143500DDC02044318
:100380000120C00701430443D2020191200C110C4B
:1003900000958C46010423468B430A91614609046B
:1003A000E24D8A430991010A7D444919803909784F
:1003B00005464D4301266D18F605751B6943C90CAA
:1003C000640B891C4C436418B5012C1B250C2E04AE
:1003D000B4434C434D43210C691889090591009D94
:1003E000E90701D00121C90704912C46019967084A
:1003F000CD072F434C08059DE10B4D432D0C29469D
:100400006646754302950D4645432E46029D7D1B6B
:10041000B44100950D465D4301942C0C2F040D460C
:100420005543AE462D0C3D43029503947546049CFE
:100430002D04641B049406D2029C039D641C0026B8
:1004400075410395029401AC70CC009F7D1B01E0C7
:100450003EE162E1B44109040095079101940599D8
:10046000A4086143090C0C464443650BE7040C46A1
:1004700066467443A646640B3C4303950294744657
:10048000049DE4042C1B049406D2029C039D641C6E
:10049000002675410395029401AC70CC009F7D1B32
:1004A000B44101940C465C430095650FE7000C468F
:1004B0005443A646640F3C43039502947446049D3E
:1004C000E4002C1B049406D2029C039D641C0026AD
:1004D00075410395029401AC70CC009F7D1BB44123
:1004E000AE09AF06049DC900AD092F43049DA406C3
:1004F000AD060495079D344369180791059DE10BEE
:100500004D432D0C29466646754302950D464543DD
:100510002E46029D7D1BB44100950D465D4301941E
:100520002C0C2F040D465543AE462D0C3D43029531
:1005300003947546049C2D04641B049406D2029C0B
:10054000039D641C002675410395029401AC70CC98
:10055000009F7D1BB44101948C050694079C890A79
:10056000611800950791019C0599A4086143090C45
:100570000D464543680BEF040D46644665436C0B1E
:100580003C43049FED047D1BAC4602D20025641C55
:100590006841009E019D371B8541084658430195DF
:1005A0000C46460FC5005443600F28436546E400DF
:1005B0002C1B02D20025401C6E41019D3F1AB54103
:1005C0002846BD09800628438446A009BF064E027E
:1005D0000699A40676180743079D002068410A99EA
:1005E000079019430020099B00906046FF191343B0
:1005F0004041E20F64003A43A4460446D71A8C41B6
:10060000A04203D90120009020463A46C70F941813
:1006100040416246D20F2243644664000494009C29
:10062000BE466400D71AA446044602978C4177461A
:10063000002F01D1A04204D96046401C8446029A92
:100640002046C40FA64694184041049A0546D20F8E
:10065000224364466400D31A8D417146002901D1BA
:10066000A84202D928461A46641C104301220028D9
:1006700000D0164361020020079B891904465C41A3
:100680000223002C02DB491813466441089DCE0A60
:100690002D145D194B056705E10A2C050D19089904
:1006A0003E43C9076940002B08D0934006D300227F
:1006B000761C5141002B01D1760876001C4A002D92
:1006C00043DB154241D0AA433FD030460BB0F0BDCA
:1006D00006180D464D41174C7642AC411AD3951879
:1006E0001C465C41134A6D42A24113D301225205BC
:1006F0004C00D4420AD15C00D4420BD04B4002D50E
:1007000092021143E2E749004908DFE75940C90F67
:10071000C90718E000200849D8E7054801420DD173
:100720000342F7D0F2E700000000FF07687E0000F8
:100730000000F07F0000E0FF0000F87F1148594002
:100740000143C01241400020C0E70123089A9B06E4
:100750009A4205DC032252078918C90FC907B5E779
:10076000052252078918074A1143D2125140ADE7BA
:1007700070B515461C4602460B4628462146FFF733
:10078000DFFD70BDFFFFFF7F30B50346CA02400D9D
:100790001043164D164C0A1502D02043002A06DBE2
:1007A000AA1A002A12DDD040FF2A0BDC30BD520508
:1007B000520D01D140004008AA1A07D4D04040424F
:1007C000FF2A01DD002030BD0028FCDD4A00002B9F
:1007D00001D0012000E00020101801225205D04273
:1007E000F0D8C817C043604030BD00001E040000B0
:1007F000000000801F22030C02D10F22000402D04F
:10080000030E03D004E00020014670470002083ABE
:10081000030F01D10001121F830F01D18000921E2E
:10082000002801DB4000521E120551184205C0127B
:10083000411810467047C10FC90700D0404201223D
:1008400092071143D6E701218907D3E7F0B58B4C16
:100850000F09254689B0BD437BD01D092646AE430E
:10086000FAD00E465E402740F60F3E43254071D039
:1008700024012142FBD0FF24AD19A4042D1B0395B4
:1008800001252D05DB02DB0AC9022B43C90A2943D6
:100890001E010901040F130F050121431701880BE5
:1008A000820391432D098C46A90B1E438A0395436D
:1008B000B30B9A0396433F09BA0B9403A7430296DE
:1008C0002E467E430497B6464E19D7190C4601961C
:1008D000544305977E43371B7646BF1B3601B64609
:1008E000BE0B361900967646BC043719009C01D31E
:1008F000641C00946400002F01D001263443029E42
:10090000049F754366467E430496760034196E0054
:1009100034190094029C019E1C196643751BAE4657
:10092000069465464519059C05956C4359437546E3
:100930000891691A0191049E01465143A41B049138
:10094000611A009C0791E10605D06109012211435B
:1009500002E072E06EE06109089D00272C0A2D0676
:100960006918049D7C412A0A2D066918019D62417F
:10097000AC0DAD026D185441079A910D92025519B4
:100980006141029A644658435443069B059A5A4370
:10099000121A131B9A0E9B015B187A41010B00057A
:1009A000C3185141220A200644195A419A4200D2E2
:1009B000491C01204002814203D315230226F6433D
:1009C00002E014230326F6432020C51AA940174647
:1009D000AF40DA400A4320460399D84009147318FF
:1009E00019055118039A3843D2075140AC4009D039
:1009F0000122944006D30022401C5141002C01D119
:100A0000400840001E4A934212D3012203989206E6
:100A1000904207DB0520400709181A480143C0121D
:100A2000414004E0032040070818C10FC907002017
:100A300009B0F0BD0020F107FAE705180C464C415B
:100A400011486D42A04115D394181A465A410E48D8
:100A5000644290410ED301204A004005824209D3EE
:100A60005A00824206D35940C90F084AC9070020DC
:100A70001143DDE700200649DAE700000000FF0728
:100A8000FE070000FFFFFF7F0000E0FF0000F07F97
:100A90000000F87FF0B5FF252D04C609C209FF2725
:100AA00004462E400137CB093E4348402A402B40A4
:100AB0000746002A6BD0002B69D0AA4267D0AB4210
:100AC00065D0002800DA32460125ED0529432C4384
:100AD00009022002090AD21A4B0C7F24E31A434C64
:100AE000000A7C44E35C7D242404121914145B0086
:100AF000A218884201D3521C00E0400049420C4633
:100B00005C4324115C43DB016415E318040A5C4375
:100B1000C502200D0C4644436419250A5D43230396
:100B2000EC0C0D46654300030019EB184C42A34240
:100B300001D35B18401CD4052018002B07D05B00A4
:100B4000C91804D3401C002901D1400840003F21AE
:100B500089048A4209D3002A08DC1106090F04D04F
:100B6000032149074018C00FC007F0BD0122410012
:100B7000120689187F2252069142F6D205214907B2
:100B8000C84201D59010F0BDFF20C005F0BD002F78
:100B900000DA32461648AA4207D2AB4205D2190201
:100BA000090E17D0F80FC007F0BDFF2563002D0612
:100BB000AB42F9D84900A942F6D8AB4201D1A942CB
:100BC000F2D0A94201D1002101E061004908D0051D
:100BD0000843F0BD1102090EFBD0FF200243D005EF
:100BE000F0BD0A460146104654E70000AE7700000B
:100BF0000000C07F10B501469E240002CA15A3075D
:100C0000002A02D01843002A04DBA21A002A0CDDB5
:100C1000D04010BD1206120E01D140004008A21AA9
:100C200003D4D04040420028F3DDFF2248001206E2
:100C3000904201D9002010BDC817C043584010BDD4
:100C40000102C21504D00123DB071943002A0ADB85
:100C50009E239A1A02D40846D0407047FF224100D2
:100C60001206914201D900207047C017C043704757
:100C70001F22030C02D10F2200041CD0030E01D14D
:100C80000002083A030F01D10001121F830F01D1A6
:100C90008000921E002801DB4000521ED205511830
:100CA000021251181922904004D3491C002801D186
:100CB0004908490008467047C10FC90700D04042A3
:100CC000012292071143D3E701218907D0E7754636
:100CD00000F024F8AE46050069465346C008C0003F
:100CE000854618B020B5FFF75FFA60BCB64600260F
:100CF0000027C0C5C0C5C0C5C0C5C0C5C0C5C0C52A
:100D0000C0C5403D490849008D46704710B50446AE
:100D1000C046C0462046FFF710FA10BD0048704795
:100D20007005002070B58C180578401C6B075B0FB0
:100D300001D10378401C2A1106D10278401C03E03F
:100D40000678401C0E70491C5B1EF9D12B0705D498
:100D50000023521E0DD40B70491CFAE70378401C87
:100D6000CB1A921C03E01D780D70491C5B1C521EAF
:100D7000F9D5A142D8D3002070BD0000B0B586B02F
:100D80000020059023490A6801231A430A60096874
:100D900019400091049003900324029418030190D9
:100DA00000980520000701A900F086FE1B4DAC61EC
:100DB000102028751A4828612846103003F0D8F909
:100DC000287006B0B0BDC046B0B586B00020059012
:100DD00010490A6801231A430A6009681940009102
:100DE00004900390032402940420019000980A4880
:100DF00001A900F061FE2020084D0A2129546C62EF
:100E00000748E86128461C3003F0B2F9A87006B024
:100E1000B0BDC04634100240000400508C060020D3
:100E20000024014080B50146652000220A544B6D24
:100E300048691C310422984780BD0000B0B5652187
:100E4000415C04465C34012915D0002917D1C169E1
:100E5000CAB21D4B9A5C0D0AEDB255405A5D0D0C9D
:100E6000EDB255405A5D0D0E55405A5D002A07D02F
:100E70000420A071B0BD0120607100206072B0BD7F
:100E80000F220A408266531F022B02D2012060719A
:100E9000B0BD092A09D10904090D2180F6D0628864
:100EA000914205D90220A071B0BD0120A071B0BD52
:100EB000227C5200521843698169456D1846A84743
:100EC00001206072B0BDC046D9820008B0B50446AA
:100ED0002420205C25462435032805D100202870D5
:100EE000A87A022806D01DE0A16C00228A71A97A96
:100EF00002290BD10A3520462830A064A36D606911
:100F0000A16AA28D984703202870B0BD022809D19C
:100F100021462031A164A36D606904229847032013
:100F20002870B0BDEFF3108072B6626C002A16D044
:100F300003209071A264A36D60691168928898473C
:100F4000A87C022802D0A87E02280CD1204630308E
:100F50002018616C401A3830606462B6B0BD002061
:100F6000A06462B6B0BD0020606462B6B0BD00008F
:100F7000F0B58DB0044600260E806120225C20462C
:100F80002430002A51D023466133E26925461C35BE
:100F9000274660371E703B79022B00D1E9E0012B18
:100FA00067D0002B00D0BFE2A16E062900D13AE144
:100FB000052900D0B8E26D21665C93049B0E0B936B
:100FC0009E420796334600D30B9B069363546E21D3
:100FD000665CD3025B0E05939E420396334600D3B4
:100FE000059B0A9363546F21665C13015B0E0493A7
:100FF0009E420196334600D3049B099363543B7B86
:101000001106CE0F0021B34202910B4600D33346A6
:101010003B7308939E1B731E9E41079B0B998B424B
:1010200000D2A1E1069B0299A0E16221615C002946
:1010300000D1E2E025466235C84A4A4309234B40C5
:10104000C74EF35C4B40F15CC64B595C0907511825
:101050000F312162EFF3108172B6A16C002900D12B
:10106000CFE062B60178002900D0D4E002210170FF
:10107000D1E0A16E062900D103E1052900D053E299
:101080006D21665C93049B0E0B939E42079633463C
:1010900000D30B9B0A9363546E21665CD3025B0EF4
:1010A00006939E420396334600D3069B09936354EE
:1010B0006F21665C13015B0E04939E4202963346D9
:1010C00000D3049B0C9508936354397B1306DE0F01
:1010D0000023B142194600D33146397305918E1B66
:1010E000751EAE41079D0B998D4200D201230599D3
:1010F0001E430CD1039B069D9D4208D8029B049D74
:101100009D4204D85206530F3A7C934202D00022EB
:101110003A713A7CC90112010A430A990902114342
:10112000099A93030B4308994A051A43511DCDB2FE
:10113000B94E755D1B0ADBB26B40F35C150CEDB26A
:101140005D40735D1201120F5A40B44B9A5C120756
:101150000A432262EFF3108172B6A16C002900D11C
:1011600052E162B60178002600290C9D00D0DBE137
:1011700047E1A36E092B00D1E7E0062B00D1B8E0D0
:10118000052B00D0D0E16D21665C93049B0E9E423E
:10119000099600D31E46089366546E210B91615C3C
:1011A000D3025B0E0593994202910B4600D3059B37
:1011B00007960A930B9963546F21665C13015B0ECB
:1011C00003939E420196334600D3039B06936354D8
:1011D000397B1306DE0F0023B1420B93194600D36F
:1011E0003146397304918E1B711E8E410999089BFB
:1011F000994200D235E10B9934E1002630460DB01A
:10120000F0BD21462031A1640322027062B66069FC
:10121000A36D0422984700262E70216D60698847CF
:1012200030460DB0F0BD0C95397801230B409F017D
:10123000110B89B20B910D037D19DB01EB186325AE
:10124000655D2D072D0D5D19AB1DDFB2F249CF5D38
:101250002D0AEDB27D404D5D120CD2B26A408A5C1F
:101260000B99090B5140ED4A515C0907C9182162DD
:10127000EFF3108172B6A16C002900D1D0E062B604
:101280005EE00C95397801230B409D01110B0A9209
:1012900089B20B9109036918DB01C9186323E35C68
:1012A0001B071B0DCB18190A3633DDB2DA4A555D20
:1012B000C9B26940515C15460A9A120CD2B24A4032
:1012C000A95C0B9A120B4A40D449895C0907C918DA
:1012D0002162EFF3108172B6A16C002900D1A6E063
:1012E00062B6017800290C9D00D0ABE002210170AC
:1012F000A8E00C95397801220A409301617F0D0323
:101300005B19D2019A186323E35C1B071B0DD218EB
:10131000130A3632D5B2C04F7D5DDBB26B40FB5C49
:1013200009095940795CBD4B595C0907891821624C
:10133000EFF3108172B6A16C002900D1D8E062B63B
:10134000017800290C9D5CD0EEE001222274008F10
:1013500008803878401C3870A669E5E0000101007B
:10136000D9820008F28C00080121069B0E431BD194
:1013700003991E46059B8B42334615D80199049B61
:101380008B42334610D85106490F3A7C91420BD11B
:101390000121397109998901E1810A9949012031B5
:1013A000A1815901203141870899C9013A7C120174
:1013B0000A43190211430A9A93030B4309994A05F8
:1013C0001A43511DCEB2944FBE5D1B0ADBB273406F
:1013D000FB5C160CF6B25E40BB5D1201120F5A4068
:1013E0008E4B9A5C12070A432262EFF3108172B6A9
:1013F000A16C002929D062B601780026002900D00E
:1014000092E0022101708FE021462031A164032285
:10141000027062B67EE0C046D9820008F28C0008F5
:1014200021462031A1640322027062B666E02146A3
:101430002031A1640322027062B66069A36D0422A8
:1014400098470C9D022038716EE021462031A1643E
:101450000322027062B66069A36D042298470026D9
:1014600062E00121049B0E430C9502D0079D069E6D
:1014700010E00299059D8D42F8D80199039D8D4297
:10148000079D069E06D85106490F3A7C891A4A42A2
:101490004A410B920B993971D9013A7C12010A43E6
:1014A000290211430A9A93030B4372051A43511DF3
:1014B000CDB2594E755D1B0ADBB26B40F35C150C67
:1014C000EDB25D40735D1201120F5A40534B9A5CAE
:1014D00012070A432262EFF3108172B6A16C002951
:1014E00012D062B60178002600291AD00C9D1BE0AC
:1014F00021462031A1640322027062B66069A36DA7
:10150000042298470C9D0FE021462031A16403225C
:10151000027062B66069A36D0422984700260C9D94
:1015200002E0022101700C9D6069636D042229466E
:10153000984730460DB0F0BDF0B581B01468E5B203
:10154000354E755D270AFFB26F40F55D270CFFB27F
:101550006F40F55D2601360F6E40304DAD5D2D07B5
:1015600025431560EFF3108472B605462435846C6C
:10157000002C10D062B60024002914D00A2919D0FA
:10158000092914D1016C0C68944231D00324426CB7
:10159000002A32D130E00A2915D0092918D1016C6E
:1015A00003248C7118E02878002830D003242046CA
:1015B00001B0F0BDA97A012925D183850220A87246
:1015C000204601B0F0BD0321A9720146283103E095
:1015D0000321297001462031816462B64169846D1E
:1015E000084611461A46A0470024204601B0F0BD27
:1015F0000024426C002A00D141648B800220887153
:10160000204601B0F0BD0324204601B0F0BD022009
:101610002870204601B0F0BDD9820008F28C000885
:101620000A2A0BD12E22825C012A0FD828300122EF
:1016300082710068001D0860104670473622825C87
:10164000022A05D33E22825C012A0BD90020704772
:1016500003463033036401229A71006B001D086059
:101660001046704703463833036401229A71806B39
:10167000001D08601046704770B56424045D022C9C
:101680001DD10546643516011E430C1F26602D7AB8
:10169000012D05D1CA258D548918FE254D70921C47
:1016A0000A2B04D1017C00290BD000210174111DEB
:1016B0008DB2194622462B46FFF73EFF70BD022031
:1016C00070BD012070BD10B504464069E16C8847CB
:1016D000602000212154204660308180636D606964
:1016E0001C3404222146984710BD0000F0B582B09A
:1016F0000A14154655430BB25B435B1906887643C3
:10170000B3421BD90B0401934088009040433C270F
:101710000124144BDC55854213D9301AC217120B21
:10172000801800154000104A105A019A002A009AA9
:1017300000D54042002910D552420EE00A0C08465E
:101740000BE0701BC117090B40180015400006493B
:10175000085A0199002900D5404280B211040818A6
:1017600002B0F0BDE8190020F084000880B50348FD
:101770000721016004F08CFD80BDC04604000240DA
:1017800080B505480168890604D5202141600348D9
:10179000FFF754FB80BDC04600000240D804002083
:1017A00070B501204003C34DE968890402D429695A
:1017B000014203D0E860286105F0E8F8E868000617
:1017C00015D42869000611D58020286122490968AE
:1017D000224A4A431E490968496A8918224A116007
:1017E00029680143296069688143696070BD80266A
:1017F000EE60174C204600F091FB2868B04328604B
:1018000068683043686013480178491C01700178AA
:1018100001290BD1104800210160124801601048D5
:101820000160114801602068416270BD01780229A1
:10183000DCD121684A6A002303700748046803600A
:101840004B620648604310180549086070BDC046E9
:1018500078190020DC190020E0190020FFFF0000AB
:10186000C0060020D8190020C406002010B526218B
:1018700041431B4A54183421615C002900D010BD3B
:1018800080001A49085803F0EDFFE085208410BD60
:1018900070B526214143124D691800244C840C84F4
:1018A000CC838C83CC828C824C820C82CC840C8541
:1018B0004C858C85CC850C8686000A48805921464B
:1018C00001F083FD08488059214601F07EFD07485C
:1018D000805904F00DF8A819806801F015FF70BD5B
:1018E0003406002058050020540500205C05002027
:1018F0007047000010B5204C607801280CD102F030
:1019000013FC00280AD002F00FFC022804D102F0D8
:10191000FFFB606000206070606810BD207802F0FE
:10192000BFFC606810BDC04610B5134C607800283D
:1019300001D0E06810BD02F0F7FB002817D002F0DC
:10194000F3FB0228F5D102F0E3FBA06001216170F6
:10195000FEF779FF094A0A4BFEF778FF0022094B90
:10196000FEF774FFFEF7AEFCE060E06810BDA07803
:1019700002F096FCE06810BD8C0600206666666684
:1019800066660A400000F03EB0B5044600F076F905
:101990000546601C02D0DB480078041900F06EF99F
:1019A000401BA042FAD3B0BDF0B58CB00B90AE4A4C
:1019B000904204D005200090002904D177E0032054
:1019C0000090002973D001230020044607460493A9
:1019D000019125E0099EA6400B9D296831432960AD
:1019E0001C2101400994079C8C400899C908890072
:1019F00069180A6AA243099C0A62A968B143A960EE
:101A000069680A9A91436960E968B143E96001999C
:101A10000A46DA40001DA41C08375B1C002A46D089
:101A20005D1E049AAA4016460E40F1D00A92069016
:101A30001821059739400F2707978F4003200895F5
:101A40002A4609908243894880180290056E0397C0
:101A50003D40052212070B9890420DD00246854862
:101A6000824207D084488242009A0698059F06D198
:101A7000022204E0012200E000220698059F8A402D
:101A80009542A7D1029D6035794A1168B143116032
:101A90005168B1435160754A5168B1435160116852
:101AA000B14311602968039A9143296092E70CB011
:101AB000F0BDC04600180240F0B58CB00B916A4AE8
:101AC000904201D0052200E0032200920B990F689A
:101AD000002F00D1C6E00123002635460293099667
:101AE00008960A9013E03A43614802600A980B9AFC
:101AF00017683A46DA40361D08355B1C0999891C7F
:101B000009910899491C0891002A00D1AAE0591EA0
:101B1000029C07918C402740E9D0069505960B9AC8
:101B2000516803260D4635406A1E012A04911BD8D0
:101B3000032209998A400A98806890430B9EF668B0
:101B40008E4006430A9886600498C006C00F079925
:101B500088400A9E7668A64306430A984660D443A6
:101B60000A98089949000BE0324609998A40D44303
:101B7000032D05D1099903913546059E049923E06B
:101B8000C268019422400B9CA4688C401443C4603A
:101B9000022D039115D11C20059E30400F2282405A
:101BA0000799CC08A4000A9D2C19256A95430B9926
:101BB0000A6982402A4322620A98496803250D4037
:101BC00001E0059E0499019C039A95400268224019
:101BD0002A4302608A03920F069D88D0182028406D
:101BE0000F2585400322079991430A9A1F4C6618D6
:101BF000346EAC43603605252D07AA4208D01D4D32
:101C0000AA4207D01C4DAA42009D04D1022502E041
:101C1000002500E001258540254335601348026812
:101C20000B984068C40201D53A4300E0BA43059ED0
:101C3000069D0E4C22606268840201D53A4300E0A2
:101C4000BA430A4C62600A4A5268840301D53A4397
:101C500000E0BA43064C62602268C00300D542E748
:101C6000BA4341E70CB0F0BD000C00500018024030
:101C70008018024000040050000800500548006829
:101C80007047C0461F48007802490A68101808606B
:101C90007047C046E419002010B50124200208490D
:101CA0000A6802430A60032000F00CF8002801D003
:101CB000204610BD00F028F80024204610BDC04684
:101CC0000020024070B50F4E31780124002916D053
:101CD00005467D20C00006F09BF801462D480068AF
:101CE00006F096F800F05AF8032D08D8002806D11F
:101CF0000024E0432946224600F028F8756020467B
:101D000070BDC0460000002082B009484168012231
:101D10001143416041681140019101991107026826
:101D20000A430260006808400090009802B07047C3
:101D30003C100240002805D41F21084001218140A9
:101D4000014801607047C04600E100E0002805D46A
:101D50000322034693430C4A9A1806E00F220240DE
:101D6000083A03239A43074BD2188007C00E890113
:101D7000C9B28140FF238340106898430843106034
:101D80007047C0461CED00E000E400E00148006838
:101D90007047C0466004002070470000401E010EDE
:101DA00001D0012070470749074A5060074803687F
:101DB0000B4003218907591801600020906007211A
:101DC00011607047FFFFFF0010E000E020ED00E031
:101DD00080B5FFF7E1FF80BD704770477047000096
:101DE000B0B5002824D0044605463C356878002864
:101DF00004D100202870204600F052F802206870BC
:101E0000206803685849884202D0584A904211D14C
:101E100070229343A2681A43204B98420EDD8842F9
:101E200012D0B44B98420FD03B4B98420CD033E0C9
:101E30000120B0BD1A46194B9842F0DC4B4B98423A
:101E400002D0334B984227D103231B029A432369C4
:101E5000134380229343A2691A430260E268C2627C
:101E600062688262884205D0A249884202D02A492B
:101E7000884201D161690163012141612973A9701F
:101E8000E97029716971A971E97129726972A97280
:101E9000E97269700020B0BD1346DAE7FF2B0140FC
:101EA000B0B582B0044600681949884204D01A4986
:101EB000884218D002B0B0BD0120C00315490A689D
:101EC00002430A600968014001910198132503212A
:101ED00000222846FFF73AFF2846FFF72BFF20682D
:101EE0000D498842E6D1012040040A490A680243AC
:101EF0000A600968014000910098152400212046DD
:101F00000A46FFF723FF2046FFF714FF02B0B0BDDB
:101F100000200040401002400044014010B53D2127
:101F2000415C012918D101463D3102220A70016845
:101F3000C86801221043C8600B48814202D00B4898
:101F400081420BD188680A4B03400020062B02D047
:101F50001404A34202D110BD012010BD0868104333
:101F60000860002010BDC046002C01400004004065
:101F70000700010070470000B0B504460068016921
:101F80008907554D17D5C168890714D52946FE31F3
:101F90000161012121778069800703D02046FFF786
:101FA000E9FF05E0204600F099F8204600F097F898
:101FB0000020207720680169490718D5C1684907C2
:101FC00015D52946FC310161022121778069800500
:101FD000800F03D02046FFF7CDFF05E0204600F03C
:101FE0007DF8204600F07BF800202077206801690A
:101FF000090717D5C168090714D52946F8310161C9
:1020000004212177C069800703D02046FFF7B2FF83
:1020100005E0204600F062F8204600F060F800205D
:10202000207720680169C90618D5C168C90615D589
:102030002946F031016108212177C0698005800FB0
:1020400003D02046FFF796FF05E0204600F046F853
:10205000204600F044F80020207720680169C90775
:1020600009D0C168C90706D02946FF310161204661
:1020700000F036F820680169090609D5C16809062B
:1020800006D52946803101612046FFF7A6FE20686B
:102090000169C90507D5C168090604D5056120464F
:1020A000FFF79AFE20680169490609D5C16849060B
:1020B00006D52946C0310161204600F01FF820688E
:1020C0000169890607D5C168890604D5E03505612F
:1020D0002046FFF783FEB0BDFFFEFFFF704770474D
:1020E0000068D649884200D0704703480168491CFF
:1020F0000160704700480140E0190020704704F07B
:10210000BBF8FEE78268D20712D1C268094B1340C0
:102110004A681A438B681343CA681A43C260032291
:1021200092070369934309681943016100207047CE
:1021300001207047C73FFFFFF0B5C268C2688268E0
:10214000D20713D101225305C2689202134A0FD558
:102150004C68F02C0CD1C46814400D6825430E4621
:102160000C3654CE2A43224332430CE00120F0BD0A
:10217000C46814400D6825430F460837D4CF2A435E
:10218000224332433A43C260C46800221C4203D057
:102190004968836A0B4383621046F0BD3CC2FEFF70
:1021A000014602680079002814D0002A1BD0487923
:1021B00002281AD001281CD0002834D123484368B3
:1021C0009343436003681343036000208979032924
:1021D0001AD92CE01D480168914301604168914380
:1021E000416000207047002070471848036813437F
:1021F00002E0164803689343036043681343436057
:1022000000208979032912D87944097949008F443B
:1022100001021014E6E70E494B6893434B600B68CC
:1022200013430B607047012089790329ECD9801C86
:10223000704707490B68934302E005490B68134355
:102240000B604B6813434B607047C04680180240D8
:1022500000180240F0B583B00B68002B5AD0002262
:102260000191029016E0764376430F2171438C432F
:1022700077432743029EF750019D009B69684843BE
:1022800031681940014331602B682946521C1C46B5
:10229000D4403FD0012494401C40F7D04868431EEE
:1022A000022B0090204615D260438F6847430325D8
:1022B000454302998E68AE433E4302998E60019970
:1022C000CE68664302994F68A74337430199029B42
:1022D0005F6002E0604303254543EB430D460E6912
:1022E00046430299CF681F4037430299CF60029E50
:1022F00000990229C2D10093260A01D0242300E0CC
:10230000202301994F690299CC58002EABD1064683
:102310004643AAE7002003B0F0BD00000149086071
:102320007047C04660040020B0B51F22D30234C9F4
:102330009C433F239B029D430B782B4323430F2455
:102340002403A2431A4303239B034C689C43144376
:102350004A88154B134023430A6A1A43E94B0C3948
:10236000984202D042640020B0BD104B1A404B6925
:102370000F4C1C4014438A690E4B13402343232205
:1023800012064C6A94431C4311225206CB699343B4
:102390002343012252070C6A94431C438A6A224356
:1023A00042640020B0BDC046FF1F0000FFFF00CC0C
:1023B000FFFF0FCCFFFF0FDC10B50468D14A90423D
:1023C00002D01C4B98420FD170239C434B6823438F
:1023D000194CA0420CDD904210D0CB4CA0420DD045
:1023E000CA4CA0420AD023E02346134CA042F2DCA0
:1023F000104CA04202D0124CA04219D10324240256
:10240000A343CC681C4304608B68C3620B8883625F
:10241000904205D0BC4A904202D0BC4A904201D1C1
:1024200009690163416901220A434261002010BD2C
:102430001C46E8E700040040FF2B01400048014033
:1024400000200040F0B584B00123AD4CA1424CDC2B
:10245000012900D180E0102900D1CEE0012424021E
:10246000A14276D1016AA1430162AD49491C1369B9
:102470001B020B40032102910902046A8C431C4396
:102480001168039153681B0223434568C4699D4F3B
:10249000B84205D09C4FB84202D09C4FB84219D1E7
:1024A00002990F03BD43566901969669D769009753
:1024B00037019A4E3E402E43009D6D0135438902FF
:1024C0008B439849091D019EB6020E401E43916838
:1024D0008B02334345608F490C4003990C43C46120
:1024E000D168C1630362002333E001242503A942BC
:1024F00069D02504A94200D1BCE02505A94228D114
:10250000016AA9430162016A166853680393156959
:10251000476D7C4B984205D07B4B984202D07B4B59
:10252000984206D1A30444689C4393699B022343C9
:102530004360774B1F4033023B434365D268C2651B
:102540000322120591436A0852050A4303990905BB
:10255000BAE0184604B0F0BD0126F143036A0B400F
:10256000036213690B40046A0327BC431C431168D0
:1025700003915168214345688469624B984205D0B4
:10258000614B984202D0614B984213D13B029D436C
:102590007302566902969769D6699F432F43750067
:1025A0003D430C239943029B5B08DB000B4391687E
:1025B000890019434560574B1C40039B1C438461B1
:1025C000D268426397E0016AA9430162016A4368E5
:1025D00016685568039515690295C769494DA84263
:1025E00005D0494DA84202D0484DA8426ED1A4035F
:1025F000A3439469A4011C4369E0016A1023994331
:102600000162016A3023994313695B085C010C4342
:10261000176851680901214345688369394EB04202
:1026200005D0394EB04202D0384EB04219D10326FF
:10263000B602B543546903943E469769D46902943F
:10264000BF00384C3C4037462C43029DED002543EB
:10265000C024A143039C6408E4010C4391688901F0
:10266000214345602C4C23403C021C438461D268CA
:10267000826340E0274D7335016A29400162016A97
:102680001668536803931469476D1E4B984205D032
:102690001D4B984202D01D4B984205D143682B40F8
:1026A00095692D021D4345601A4BDB1C1F403743C3
:1026B0004765836DD26882650322120491436208E4
:1026C00052040A4303990904114314E01C46446070
:1026D000114B1F4033023B43C361D26802640322A3
:1026E000120391430D4A1032029B1B0313400B430C
:1026F00003990903194301620023184604B0F0BD91
:10270000FF0F0000002C0140004801400044014040
:10271000FF8FFFFE8CFFFEFFFF8CFFFEF0DFFFFF51
:10272000FFFDFFFFFCF7FFFF10B54A780B789A1802
:10273000130A29D18B78D218130A2BD1CB78D2184F
:10274000130A01D0D2B2521C0B79D21893B21B0AD1
:1027500001D0D2B2521C4B79D21893B21B0A01D0CD
:10276000D2B2521C8B79D21893B21B0A01D0D2B2CA
:10277000521CC97951183C2813D188B2FF2800D9BE
:10278000491CFF20884310BDD2B2521C8B78D2184E
:10279000130AD3D0D2B2521CCB78D218130AD1D19B
:1027A000D2E7012212028BB2934201D3C9B2491C73
:1027B000430802095A40C30844095C405440E301FD
:1027C00080245C40830843405340DA07520E0243A2
:1027D0002243D0B2091888B2FF28D2D9491CFF2061
:1027E000884310BD10B512C8084603F0E3F82082F4
:1027F000000C608210BDB0B50446807F01282DD149
:10280000207B01280ED003281ED00325022824D1C6
:1028100060682421002242542068042103F0E7F874
:10282000102009E06068242100224254206803251A
:10283000294603F0DCF80E20215EE28A206803F0CE
:1028400061F8002808D108E0606824210122425480
:10285000618AA28A428201820225A577B0BD00006A
:10286000034BC383C282C181012101737047C046FB
:1028700001030000514BC383C28201820221017314
:102880007047C046B0B5044600F072F800250B282A
:1028900004D1204600F01CF8002801D02846B0BD25
:1028A000022020760020A08301252846B0BD838B1E
:1028B0000B438383438B0B4393434383704780B520
:1028C000006803F07FF802F08CFF80BDC07F704786
:1028D000408B7047818B408B0004401870474068E4
:1028E0000188408800044018704740688188C0888B
:1028F000000440187047017B03290BD0022911D036
:10290000012917D10E21405E002813DA0020C043B0
:1029100000B270471221405E00280BDA0020C0434D
:1029200000B270471021405E002803DA0020C04347
:1029300000B27047012000B2704740688189C089A9
:102940000004401870474068018A408A000440181B
:102950007047C08A70470E21405E70471021405E6C
:10296000704780B5006803F02AF880BD808B7047FF
:10297000407E704740681E21405E70474068418B32
:10298000808B0004401870474068C18A008B0004A7
:102990004018704710B50024C4820482C4810473B7
:1029A0000EC08481C4810482847410BD034AC28332
:1029B000418203220273090C8182704701040000E6
:1029C000B0B50546FFF7D4FF0024002801D020460B
:1029D000B0BD2846FFF7CAFF0028F8D12846FFF708
:1029E00077FF0028F3D10124AC772C762046B0BDC8
:1029F000F0B581B00446FFF7BBFF06462046FFF75F
:102A0000B5FF0025002802D0284601B0F0BD704275
:102A100070410C3E7742774147402046FFF758FF10
:102A2000411E88413843EFD10125052020762846F4
:102A300001B0F0BD80B5006802F0DFFF80BD00008E
:102A400010B501140D4A4A4301B20D4B4B439B187C
:102A5000032189072F4A8B42114600DBD90B2E4CEC
:102A6000A34200DD511E8BB20124E403A34200D136
:102A7000511C090480B2081810BDC046346CFFFF19
:102A80001AB6FFFFF0B583B00446084600F05EF8C2
:102A90002214031411460293594324B203B2204670
:102AA00001935843431A032081071A4800918B422F
:102AB000054600DBDD0B471E17498B42394600DC1B
:102AC00029468DB20123DB03461C9D42354600D0CA
:102AD0000D4602994C4301994A431119009A9142BB
:102AE0000ADA0D4A91420BDDA8B2B9B299420CD173
:102AF0003104081803B0F0BDC80B074A9142F3DC5B
:102B00000746A8B2B9B29942F2D03E46310408183D
:102B100003B0F0BD0080FFFFFFFFFF3FB0B50446EC
:102B2000084600F013F8211402140B46534324B254
:102B300000B225464543EB18DB0B9BB2544341439F
:102B4000081BC00B0004C018B0BD000080B2820B8F
:102B5000022151408009C0467944097949008F44D7
:102B600001230A16C1B24800164A105A4042FF23F8
:102B70004B40590012E0C1B24800124A105AFF23DC
:102B80004B405900515A89B2000440187047C1B2F5
:102B9000FF20484040000B4A105A4900515A494210
:102BA00089B2000440187047C0B24100054A515A2A
:102BB000FF2343405800105A404289B20004401895
:102BC0007047C0467A8D0008F0B585B006460C887F
:102BD00003462133002C049329D03068C289092090
:102BE000944239D801948A781A70CF789F700A7904
:102BF0001A714A799A71D319B47FA34202D90A2073
:102C000005B0F0BD00908D1DFA4227D10022049B33
:102C1000901D0199884200981ED8881A801E7083E2
:102C200028781872002802D0002005B0F0BD0020DE
:102C30001872308B00280AD071695A7A0A523068AB
:102C40004468328B921C92B20923A047049B002057
:102C500058723083F077587005B0F0BD00242746D5
:102C60002246029613E0304601F08CFB049B029E44
:102C7000F1680855987899790818F168095D039A00
:102C800051188AB2AD1C7F1CFCB2A042C0D903927D
:102C9000A000716809182E88304601F083FB049B60
:102CA000F8B299788842DED20220E0E7F0B585B02C
:102CB00004462220215CE07F884249D12546203508
:102CC0000026E677208B00282ED120680368214655
:102CD000143109229847002823D0042020830020A3
:102CE00028706948006861690860687AA97A884232
:102CF00017D0A872E8782871E97929726A78AA70E1
:102D00006A79AA71628BA283081882006168A06840
:102D1000FDF71AFAE878E9790A18E1682069FDF701
:102D20006DFA208B002815D0A18B884202957AD8A5
:102D30002A796169002A019151D0032717400B18A5
:102D4000A0680490501E032806D2002F2DD146E023
:102D5000401CE07705B0F0BD0397FC2717400499AD
:102D60000831002608460838006800881880208B43
:102D7000801C2083081F006800885880208B801CDE
:102D80002083086800889880208B801C20834868F6
:102D90000088D880208B801C208308331031361D9A
:102DA000B742DFD1039F002F19D0B10004984058DB
:102DB00000881880208B801C2083012F0FD004985E
:102DC0000918486800885880208B801C2083022FB7
:102DD00005D0886800889880208B801C2083A97982
:102DE0004B087E2B1FD82B788B421AD100212970DB
:102DF000297A002917D08918049121690391A668BE
:102E0000019B1746950075592D6881B25D50039955
:102E1000895C401820837F1CFAB204999142F1D852
:102E200001E0591C2970A18B82B28A42029A91D981
:102E30009179FE2918D1117A002915D015794919EF
:102E40000491216903916369A7682E46A900795806
:102E5000096882B299500399495D40182083761C15
:102E6000F5B20499A942F1D880B26169029A927AC6
:102E70000A5220684568228B921C92B20923A84707
:102E80000020208305B0F0BD60070020F0B583B0BE
:102E90000346008B00282DD01A4624329178FE2953
:102EA000009218D11179002915D012788918029151
:102EB000196901915D699F68164691007958096802
:102EC00084B229510199895C40181883761CF2B2AA
:102ED00002999142F1D880B25969009A92790A52C6
:102EE00018681D4644681A8B921C92B20923A047A9
:102EF0000020288303B0F0BDF0B585B004464068DB
:102F00000388A189891E0391A181861C6660002225
:102F1000E281FF201946814307201D468543E808CA
:102F200001273D02A94205D0A94207D00225202849
:102F300009D989E01F220240A942F7D120200225A9
:102F4000202800D980E004970296591E4907090EEF
:102F5000C04B5F1823460E33216889894E1EC04638
:102F6000784400794000874410171D232A2F3943E5
:102F70006F486F6F6F4D6F6F6F6F6F6F6F6F6F6FAA
:102F80006F6F6F6F6F6F6F6F57000420E081A068E5
:102F900004990170002557E0B1B2204601F0E6FE29
:102FA000054651E0B1B2204601F07EFA05464BE0FD
:102FB0003846FFF705FD05460498454044E038468D
:102FC000FFF716FD00253FE03846FFF7D1FC00254E
:102FD000062839D13846FFF72DFD35E03846FFF792
:102FE000C7FC00282AD03846FFF702FD00252BE059
:102FF0003846FFF747FC002526E03846FFF7F2FB8E
:10300000002521E0A0680090039880B232B20299B6
:1030100000F044F8054617E00D25012A14D837467C
:1030200090000D490E58002E0ED0A0680090039815
:1030300080B23AB20299B047054605E03846FFF73C
:10304000BFFC054604984540E089A1680D54E0891D
:10305000401CE08105B0F0BD80180020704770472B
:1030600080B589480068FFF70DFC80BD80B58648B3
:103070000068FFF724FC80BD80B583480068FFF737
:1030800070FC80BD80B580480068FFF76FFC80BD94
:1030900080B57D480068FFF76BFC80BD022070475B
:1030A00080B50A46014678480068FFF7D9FB80BD25
:1030B00080B559480078002803D000F003F803F0E9
:1030C00077FB80BD70B5544D2878012810D16888F1
:1030D00000280ED0461E6E80A888002802D0A8883E
:1030E000401EA880E888002802D0E888401EE880BA
:1030F00070BD03F0BDF9FFF7B2FF0E4C2068826887
:1031000021460C319047606001260028E3D02068FA
:103110000368214608310A2298470028DBD0204660
:10312000FFF7EAFEE289A168206844680A23A04705
:10313000D1E7C0462001002080B553480068FFF762
:103140003FFC80BD80B550480068FFF751FC80BD52
:10315000F0B583B000285DD02F4C01902F48A060BF
:1031600000210291217000F047FC2D48FEF7ABFAD8
:103170002C4E304600F021F92B4F384602F0F0FE7D
:103180002A4D286831463A4602F021FC284E304646
:1031900003F095FE2968A06800902648264B324629
:1031A00002F02EFA254800F008F9254800F005F94C
:1031B000244F384602F00AFB2348006826461036A2
:1031C0008660C760214800F0C7F82148E06001F040
:1031D000CDF80298FEF75CFB342001252554134FEF
:1031E000386802F0E7FB2062386802F0E3FB000C6D
:1031F000A0843968A368174F38463246FFF7CAFBE8
:10320000384602990A46FFF72BFB01980760FFF743
:1032100025FF257003B0F0BD34060020C801002052
:10322000D80400208C010020000300205C05002051
:10323000A004002074020020EC02002060010020A5
:1032400034010020100000205005002064040020FC
:103250005C0200208C18002080B5FEF797FD7D21D0
:10326000090104F0D5FDFEF799FD0648016800222A
:10327000D043FEF76BFD0448FFF76AFF04F084FBC0
:1032800080BDC04604000020D0190020F0B581B0F8
:1032900001208104134A10680843106012488023FB
:1032A0000024224D3F26114F076046608460C560B0
:1032B00004614461836112680A4000920099FEF73C
:1032C0008FFD002803D0EFF3108072B6FEE71624BE
:1032D000032100222046FEF739FD2046FEF72AFD95
:1032E00001B0F0BD401002407819002000480140B4
:1032F000FEE7000010B504460078002802D0002048
:10330000E08210BD2620205C00F00EFE07498842B6
:1033100007D0228A218B4B1E5343181804F078FDE6
:103320002082204600F02BF8E08210BDFFFF000055
:103330000021018270470178002902D0808A00B202
:1033400070471E21415E026A038A9A1A4A43111489
:10335000808C081800B2704710B504460078002829
:1033600004D00020E082608A208210BD201D00F081
:10337000FFFE262160542046FFF7DAFF10BD018AC8
:10338000428B914201D908207047828B914201D231
:1033900000207047C08A70472221405E7047C08C71
:1033A00070470621405E7047408B7047C08B704766
:1033B0000421405E7047808B704700218162026863
:1033C00042608160018C4184704781607047418414
:1033D0007047C18401228A4082847047C18070474F
:1033E000B0B50D460446C18301208840608305497D
:1033F000A940204600F013F80349A940204600F0F8
:103400000CF8B0BDFF7F00000180FFFF8180704796
:10341000818301228A400283704701617047C16045
:1034200070470000F0B50622855E1622825E1423E6
:10343000C35E0424045F4C43002D0FD069438768AA
:103440007E18194D26D40F4000D43546C1688D42F0
:1034500005DC01698D4202DB294600E00021858BF5
:103460002C41C58B0E462E4135199D4205DD5C1B56
:103470001A466118816010B2F0BD541B02DDAA42E9
:10348000F7DC02E00024AA42F3DC2A4661188160DE
:1034900010B2F0BD002903DC3546002FD5DDD5E79D
:1034A000AD1E002FD1DDD1E70100008010B581688D
:1034B0000C228A5E1623CB5E53430E228A5E1824AA
:1034C000095F5143C918CA17120C89180914002240
:1034D000825E891A09095118018010BD00210180FE
:1034E0007047B0B504460020255EE06803F038FC64
:1034F0006843FDF7E1FB0146606804F0CBFDB0BD19
:1035000080B58169884780BDB0B504460020012997
:1035100009D0002912D1204600F0F6F8E1682046D3
:1035200088470120B0BD4E21615A0125002906D0EF
:1035300022464E32491E1180090402D0B0BD2846F1
:10354000B0BDE168204688472846B0BD80B5026816
:10355000904780BDF0B585B0838F0AB25A4360238F
:10356000C75A091479434B00D51AE90F6918491055
:103570000391594201918C1AE10F6118491002918F
:103580000146403103466A330126F24395420490D6
:1035900016DC944231DC04221A700398029A801AD5
:1035A000C217920B80188014BA0882186842800CE7
:1035B00016186042800C171A15463C46334676E0D2
:1035C00000970022D743BC422DDB1E700398029A5D
:1035D000801AC217920B80188014009A92088218E1
:1035E000E817800B28188014171AE017800B201892
:1035F00080141618154634462AE00198002829DD63
:1036000002221A7003460398C01AC217920B801840
:103610008014BA0887186842800C3A18580C16189B
:103620003D46344642E001980028009E29DD1A708C
:1036300003460298181AC217920B80188014B20819
:1036400086186042800C321A580C171A35461446F8
:103650003B462CE003221A7003460298181AC21740
:10366000920B80188014BA088718E017800B201876
:1036700080143A185842400C16183D4614463346FA
:1036800015E005221A7003460398C01AC217920B60
:1036900080188014B2088618E817800B2818801448
:1036A000321A5842400C171A35463C4613464F8191
:1036B0000A81CE80E81785430498C587DA179343BB
:1036C0004B80E21794430C80CA8B012A18D1102238
:1036D0008E5E4F8C7A42002E3E4600DC16467519EF
:1036E000C58712254D5F002D3D4600DC15462C197F
:1036F0000C8014240C5F002C00DC1746FA184A805A
:103700004169884705B0F0BD80B54168884780BDF4
:1037100080B58168884780BD70470000F0B58BB0E8
:1037200004466E20205C26468036424D00285CD13F
:1037300020466A300146079020680A906069099027
:10374000862005900896002626548722049204209D
:103750000690A05426676667A667087036486061C1
:10376000364820606868364901406960204600F0AC
:10377000C5FA0898C06870210391425C28461C383D
:103780000290214644310191274686373B4604F09A
:10379000F3FA204600F060FA04982654059826545F
:1037A0002848206007980670089E204600F0A6FA78
:1037B000F0680399425C029801993B4604F0DCFAF8
:1037C000204600F049FA0799069808700120087110
:1037D0000A982060206F00092067606F0009606709
:1037E000A06F0009A067099860618B200021215417
:1037F000286815490840286028680840286028681B
:10380000084028603088A861E8612862281F0168A4
:103810000822114301600121C90203680B430360C0
:103820002868104328606868BB49014369600BB091
:10383000F0BDC0461C2C0140BD3B000865390008A6
:10384000AAFAFFFFB1390008FFF7FFFF026F0A6015
:10385000426F4A60806F886070470000F0B50123B6
:103860001A03644C2568954325603A4A1468042578
:10387000AC4314608C2282586A24065DB40012198D
:10388000546B2488D26C158802465032052E53D8CA
:10389000B3405E07B60F15D1DB069B0F26D0036F32
:1038A0001B1B2D4EB34200DB33462C4FBB4200DCCA
:1038B0003B460B80406F441BBC422BDA27484880B4
:1038C000274C41E0036F1B1B234EB34200DB334602
:1038D000224FBB4200DC3B460B80806FC0182C1A85
:1038E000B4421DDD1D48841E4C802DE0436F1C1B1F
:1038F000194EB44200DB3446184FBC4200DC3C4653
:103900004C80806F00192B1AB3420FDD1348831EC1
:103910000B8019E0B44212DD1048841E4C8013E085
:10392000BC420EDA0D4848800D4C0DE0BB420ADA6D
:103930000A4808800A4B07E04C880B8804E04C805A
:1039400002E04C8000E00B80548013801819404244
:103950009080F0BD0C240140FF7F00000180FFFF3C
:1039600001800000B0B501221203224B1C68944371
:103970001C608722835C8622825C0F2A13D8024651
:1039800086329B0004467034E469E3185C6B24883B
:10399000056F2C190467DB6C1B88446FE3184367C1
:1039A0001078401C1070002048800880B0BDC046D0
:1039B000B0B56A230022C25401231B030D4C2568B5
:1039C0009D4325608723C35C8624045D0F2C0ED89D
:1039D0000446863405468C359B002D68EB18DB6C5D
:1039E0001B88856FEB1883672078401C20704A8005
:1039F0000A80B0BD202C0140F0B583B00446802081
:103A0000C143444D2961E9680143E960205A401EE1
:103A10006862286AEA49014329620126F0063F49A3
:103A20000A6802430A600968014002910298F002A4
:103A30003B490A6802430A603A4F3868C00027D4FD
:103A400030073968384A0A4002433A60374800680C
:103A5000374904F0DDF9400001900198002817D0A3
:103A60000198401E01900198002811D00198401E35
:103A70000190019800280BD00198401E01900198F8
:103A8000002805D00198401E019001980028E7D138
:103A900020465E30214688313B68E84A13409B1837
:103AA00018333B603B68002B08D53B68002B05D5DD
:103AB0003B68002B02D53B68002BF3D43B681340D6
:103AC00033433B603A46083A1368DB0708D1136872
:103AD000DB0705D11368DB0702D11268D207F1D0EA
:103AE00022468232B74BDA6038379F605A68B64F49
:103AF0001740FA1C5A601A6832431A60B202E26731
:103B000000228A700A80028028683043286003B04F
:103B1000F0BDC046002C0140550500003C1002409D
:103B20000C58014008240140E8FFFF6F60040020AA
:103B3000400D03008A21415C00290ED001468A31E4
:103B400000220A7002218922825C002A03D0893077
:103B50000022027040310846704700218922825CB1
:103B6000002AF4D1F7E78B21425C01468931002A13
:103B700003D001200870002070478C300068772245
:103B8000825C022AF5D142680369936282684369C4
:103B90009362C268806990620120087000207047BB
:103BA000FF2102318A2281528C21415809684A6CD6
:103BB00001239B0213434B646830704780B5872113
:103BC000415C6A22815401218902C1678021415AE6
:103BD000491E89B200F060F980BD70B54621425A95
:103BE0008021415A8B1A9DB203468033DB686624DC
:103BF0001C5BA54208D902466A32042313704A1E90
:103C000091B200F049F970BD064646367688961B9B
:103C1000B6B26D00AE4206D966335988521A91B2D7
:103C200000F03AF970BDA21893B28B42E8D3012399
:103C3000DB02C367D24349008A1891B200F02CF925
:103C400070BD6E22012383540A6802674A68426786
:103C50008968816770470000F0B581B06B21002250
:103C6000009242548B490C1F256801239D43256017
:103C7000DC034D6BA5434D638B24045D8830002C21
:103C80000DD144687725655D022D08D165682669E8
:103C9000AE62A5686669AE62E568A469AC62494A2D
:103CA00014680226B4431460634C271F3A689D4D84
:103CB000154010353D6022689A432260414A121F28
:103CC000166022460C3A04251560372292012568B9
:103CD00095432560009A0270D84308600A68D207AD
:103CE00008D10A68D20705D10A68D20702D10A684A
:103CF000D207F3D0086001B0F0BDC046F0B56B212B
:103D0000002242548021425A530862494B628B621E
:103D1000CB62521F0A63803001220272D3430B60D0
:103D20000C68E40708D10C68E40705D10C68E407C7
:103D300002D10C68E407F3D00B6094024D6B25436D
:103D40004D63D4034D6B25434D63C0687724045DF8
:103D5000022C14D1046945680E69194F3E4207D000
:103D6000AC6184684569A561C4688069A06106E0AA
:103D7000AC6284684569A562C4688069A062114824
:103D800004689443046044680F4D2540AC1C4460B3
:103D9000046814430460284C25460C3D04262E601C
:103DA000256815430227BD432560041F266004686B
:103DB0003C4304600B60081F016811430160F0BDC3
:103DC00055050000080002400000FFFFF0B581B07B
:103DD000C26F03218B0218490C689C4314430C608A
:103DE000372292010C68944301239A020092A4188E
:103DF00040340C606A24045D8C2545592E197127C6
:103E0000F65DB6000F680422974337430F60A200A7
:103E1000AA18D269CA611A032A4B1C6814431C6091
:103E2000091F0A68AA4B13401A1D0A600099C1674E
:103E3000683001B0F0BDC0460C240140E8FFFF7FB0
:103E400010B56B2201238354DC43124A1460516283
:103E50009162D1628C301168C90708D11168C90715
:103E600005D11168C90702D11168C907F3D0D90378
:103E7000536B0B43536300687721415C022908D1DF
:103E8000416802698A61816842698A61C1688069A2
:103E9000886110BD102C0140C28F0A4B5A6140222C
:103EA000825A9A6140304288DA61196219688288C0
:103EB000012A03D10021818001207047C804C00F6E
:103EC0007047C046202C014010B5F3490A780620FF
:103ED00050430818037E002B22D0920089188A686C
:103EE000116804230B60CB680324A343CB60CB6829
:103EF0003724A401A343CB604B697024A343946887
:103F000024011C434C61127901231C4694406F4AE2
:103F100022408A6243768868E04A0240101D886029
:103F200010BDC046E8FFFF7FF0B585B006231946F7
:103F30004143E24C6218157E002D7BD115461835A1
:103F400004952646183671180D1D029503914F1DD4
:103F5000217E002908D0657F0021854214D9019671
:103F6000009121461D313AE00425A17F00290FD19F
:103F70002421615C00291AD12A21615C002925D104
:103F8000042D3BD1207048E00D46A17F0029EFD0E1
:103F90002321655C0121854204D9019600912146C7
:103FA00023311CE00D462421615C0029E4D0292145
:103FB000655C0221854204D9019600912146293190
:103FC0000DE00D462A21615C0029D9D02F21655CC6
:103FD000032185420FD90196009121462F313D7072
:103FE000029F009E3E7008705D4361190877049D32
:103FF000039F019E13E00D46042DC3D001962E466B
:1040000019466943019D69184D793D70029F3E70C4
:10401000019E48715D4371190871049D039F002141
:1040200079700121297021784B43F11849780129D1
:1040300000D020708821244B595C002903D0508B7C
:1040400080B205B0F0BD8000201881680868C368A0
:104050000325AB43C360C3683725AD01AB43C360E1
:1040600043697025AB438D682D011D434561097976
:1040700001231D468D4015492940816204210160BC
:104080008168864D0D40291D81600168490708D46B
:104090000168490705D40168490702D40168490746
:1040A000F3D5006C5083022151762578AD00651957
:1040B000AD682D68527F2270EA681A438A43EA602D
:1040C00080B205B0F0BDC046C8010020FFFF070068
:1040D000E8FFFF7FB0B5794D6878012817D1AC783B
:1040E0002046FFF721FF0146A880062060432818DC
:1040F000407E002801D002206870E0002818036B81
:10410000002B04D000226A70426B20469847B0BD55
:104110006A484178022903D10021417080887047A4
:1041200000487047FFFF0000644840787047C04671
:10413000B0B56248027891004118896809680B6837
:10414000062454430219547EFD252C420DD004242C
:1041500023400AD01346193302241C700B6C53837E
:10416000CB6801251D43A543CD60517F0170B0BDD3
:10417000F0B5524A95686B1E294699410023002DDF
:1041800003D12C46002D03D10AE0DC43002D07D0DB
:1041900006792F79B74203D106682D68B54249D018
:1041A000002904D12146D368002B04D104E0012169
:1041B000D368002B00D02146002B07D004791D794D
:1041C000A54203D104681B68A34232D0CBB2042BB2
:1041D00004D80C461369002B04D104E002241369AF
:1041E000002B00D00C46002B07D001791D798D42A1
:1041F00003D101681B688B4249D0E1B2042904D87D
:1042000023465169002904D104E0032351690029A0
:1042100000D0234600290DD004790D79A54209D19B
:1042200004680968A14205D10323D9B203292CD817
:1042300003E00123D9B2032927D88C001419A06008
:10424000CC00151900242C6300688568ED0716D191
:104250008668124D2E407619183686608668002EC4
:1042600008D58668002E05D58668002E02D586689A
:10427000002EF3D486682E40012535438560062044
:10428000484310184377047603770846F0BD0223AD
:10429000D9B20329F9D8D0E7E4050020E8FFFF7F71
:1042A000064A5178002902D048424841704701230C
:1042B00053709070484248417047C046E405002062
:1042C00080B58268C168022903D303699A18491E20
:1042D00005E0012904D1416842694A430021C160D7
:1042E00082604169104603F0B5FD80BDF0B583B032
:1042F00015460F4604468068616903F0ABFD002D4A
:1043000027D006460295381A019002F04FFF054665
:10431000304602F04BFF0090384602F047FF6760DE
:10432000854200D305460098854200D30546656165
:104330006E43A6602168029848437D21C90003F0BE
:1043400067FD01996943451C0846294603F082FD33
:1043500007E0384602F02AFF60614743A760002566
:104360002846E5602061012003B0F0BD0021012254
:1043700041608160C160016142617047C16848422B
:104380004841704738210140082905D0182905D037
:10439000102905D102207047012070470420704782
:1043A0000020704738220240102A1AD10722904379
:1043B0003A4A80180622D041132812D8784400794E
:1043C000400087440912181E242A30363C42484EC9
:1043D0000E0E54590E0E5E6332484068086000208D
:1043E00070472D480860052070472E484068801CA3
:1043F0000860002070472B484068001D08600020BE
:10440000704728484068801D086000207047254894
:1044100040680C30086000207047224840680E3029
:104420000860002070471F48406810300860002076
:1044300070471C48406812300860002070471948D7
:1044400040681630086000207047164840681830F1
:10445000086000207047134840681A300860002048
:104460007047104840681C300860002070470C48B6
:10447000001D08600020704709480C3008600020CB
:104480007047074870300860002070470448723059
:10449000086000207047C046AC18002030F8FFFFCD
:1044A000000300208C180020F0B58BB006460020D9
:1044B000F081B789002F05D00D4600907368B2686F
:1044C000029616E001200BB0F0BDD248FEF707FAC5
:1044D000069A000C1080049B9B1CF0890019F08147
:1044E000059D2D1BA0B21218BF1E380401D100F08B
:1044F0001CFC06921988072038220A40083AD20884
:10450000042A01D900F012FC81430595049352005E
:104510007A4492885200974404001600F100090181
:104520005001280401D100F003FCC82900D193E117
:10453000882900D194E1482901D000F0FCFBB5485E
:10454000FEF716FA8FE1A8B2022800D2F0E3903904
:104550000620C1410520622900D9E7E30224890031
:1045600001A25158069A8F46F9460008974B000859
:104570009B4B00082D4D00089F4B0008A54B0008E1
:10458000AB4B00082D4D0008AF4B0008B54B0008A1
:10459000BB4B0008C74B0008D74B00082D4D000847
:1045A0002D4D0008E74B0008F34B00082D4D000887
:1045B0002D4D00082D4D0008FF4B0008094C000848
:1045C0002D4D00082D4D00082D4D00082D4D0008E3
:1045D0002D4D00082D4D00082D4D0008154C0008EC
:1045E000F74600081F4C00082D4C0008494C0008F5
:1045F000534C00085B4C0008654C00086D4C0008EB
:10460000774C0008894C0008934C00082D4D000899
:104610002D4D00089B4C0008A54C0008AF4C00082D
:10462000B94C0008C34C0008CF4C00082D4D0008C1
:104630002D4D00082D4D00082D4D00082D4D000872
:104640002D4D0008F5460008F54600082D4D0008E0
:104650002D4D00082D4D00082D4D00082D4D000852
:104660002D4D00082D4D00082D4D00082D4D000842
:104670002D4D00082D4D00082D4D00082D4D000832
:104680002D4D00082D4D00082D4D00082D4D000822
:104690002D4D00082D4D00082D4D00082D4D000812
:1046A0002D4D0008D94C0008DD4C0008E14C0008F5
:1046B000E54C0008EB4C0008F14C0008F54C0008F4
:1046C000FB4C0008014D00082D4D00082D4D000841
:1046D0002D4D00082D4D00082D4D00082D4D0008D2
:1046E0002D4D00082D4D00082D4D00080F4D0008E0
:1046F0001D4D0008EFE6E8E647487CE2A8B2042832
:1047000000D215E30520D72900DD94E0182900D157
:1047100064E1582900D165E1982900D006E33D48BD
:10472000FEF71FF9069A0621414361E12039062070
:10473000C141032900D9FEE20397490079448988E1
:1047400049008F4403009400CE00060133490C78E1
:10475000002C00D13EE12AB2012100238DB2954206
:1047600000DBE3E2069DEC54ED182C4CE7187E7854
:104770004C1C002E00D103E2A4B2944200DBD5E22F
:104780006E70BE788C1C002E00D1FBE1A4B2944266
:1047900000DBCBE2AE70FE78CC1C002E00D1F3E142
:1047A000A4B2944200DBC1E2EE703C791B1D091DEE
:1047B000002C029E039FD1D18FE028390624E141CD
:1047C00005200D2900D9B1E23546069EB31C8900AB
:1047D00002A2515832462E468F46C0462148000854
:1047E0000D4A0008234A0008354A00082D4D0008EC
:1047F0002D4D0008534A0008774A0008914A0008E6
:104800002D4D00082D4D00082D4D00082D4D0008A0
:104810005F4B00088C1800208C010020E783000803
:104820000A201080059880B20C2800D280E20A226B
:104830001846FD4909E1D82900D1DCE02322D20045
:10484000914200D1DBE0FB4A914200D06EE2FA488F
:104850000068FEF746FED5E0F84800F0C5FE02E02D
:10486000F748FEF733F8069A1070012433E6F5494D
:104870000C78002C00D1ADE02AB2012100238DB2CA
:10488000954200DB52E2069DEC54ED18FC4CE71813
:104890007E784C1C002E00D172E1A4B2944200DB61
:1048A00044E26E70BE788C1C002E00D16AE1A4B286
:1048B000944200DB3AE2AE70FE78CC1C002E00D1B0
:1048C00062E1A4B2944200DB30E2EE703C791B1D41
:1048D000091D002C029E039FD1D1069AD0180C46C8
:1048E00056E1E849096801910C78002C72D02BB28E
:1048F0000122002195B29D4200DB17E2069D6C5417
:104900006D18019C67187E78541C002E00D137E189
:10491000A4B29C4200DB09E26E70BE78941C002EAB
:1049200000D12FE1A4B29C4200DBFFE1AE70FE7823
:10493000D41C002E00D127E1A4B29C4200DBF5E19B
:10494000EE703C79091D121D002C029E039FD1D1EF
:104950003BE0FA490A6824210192545C002C39D0CA
:104960002BB20122009995B29D4200DBDEE1069D4B
:104970006C546D18019C671825243E5D541C002E54
:1049800000D1FDE0A4B29C4200DBCFE16E70262492
:104990003E5D941C002E00D1F4E0A4B29C4200DBEA
:1049A000C4E1AE7027243E5DD41C002E00D1EBE0A4
:1049B000A4B29C4200DBB9E1EE7028243C5D091DE5
:1049C000121D002C029E039FCDD1069B5818144641
:1049D0001A46DDE00124069A1046D9E0D848FDF7D2
:1049E00079FF0FE0D648FDF76AFF06214143069A9A
:1049F000116004246FE5D74801F09BFA02E0D54826
:104A000001F0A6FA069A1060042464E53C201080A8
:104A1000059880B23E2800D28AE1CD4801683C2248
:104A200012E00E201080059800B2102800DA7FE115
:104A3000C64807E00E201080059880B2102800D2EA
:104A400076E1C14801680E221846FBF7D7FB069AAB
:104A500093E0BB4E3046FDF77EFF604306994880E9
:104A6000000C0699888030462E46FDF772FF069AA4
:104A7000D080148081E004201080B14C2046FDF7E6
:104A80006DFF069948802046FDF763FF069A73E0A4
:104A900028201080059880B22A2800D248E1002101
:104AA00007AAA848164600F0A2FD02200390305E37
:104AB000604306994880000C0699888007980699FB
:104AC000088108980699C88001219E48324600F066
:104AD0008EFD08980699C881079806990882324683
:104AE0000196039E905F604306994881000C0699E9
:104AF00088819448314600F07AFD08980699C8826A
:104B0000079806990883019A905F60430699488246
:104B1000000C0699888203218A4800F068FD0898F5
:104B20000699C883079806990884019A905F6043A4
:104B300006994883000C06998883042181482E46F3
:104B4000154600F054FD069A0898D0840798108501
:104B50000398285E60435084000C90840DE004208C
:104B60001080774C2046FDF7EEFE069948802046DF
:104B7000FDF7E9FE069A000C90801088841CAAE4D8
:104B8000681C02E0A81C00E0E81C029E039F069A35
:104B9000002101709FE4724827E071480FE06E48E1
:104BA000006828E06C4800681FE06B4806E06B482E
:104BB000006820E06948006817E068480068FEF770
:104BC000EBFB069A86E4634807A90AAA01F0C3F939
:104BD000069A07987EE45F4807A90AAA01F0BBF984
:104BE000069A0A9876E45B483430FEF7DAFB069AB8
:104BF00070E458483430FEF7DBFB069A6AE45A4802
:104C000002F0AEF8069A65E456480068FEF793FB9A
:104C1000069A5FE44A48FDF762FE069A5AE448485D
:104C2000FDF763FE069A55E4708D00084448FDF7D1
:104C30005CFE4DE4581B000050050020740200206B
:104C40008C180020D98300083D48FDF776FE069AAF
:104C500040E43B48FDF771FE3AE43948FDF773FE46
:104C6000069A37E43648FDF76EFE31E43448FDF726
:104C70008BFE069A2EE43248FDF786FE28E4C046F5
:104C8000D9830008580200202D48FDF777FE069AC8
:104C900020E42B48FDF772FE1AE42E4800F0A4FD34
:104CA000069A17E42B4800F0A5FD069A12E429485D
:104CB00001F043F9069A0DE4264801F03EF9FFF7AA
:104CC00007FC244801F033F9069AFFF703FC21485A
:104CD00001F02DF9FFF7FCFB214821E0204818E006
:104CE0001F480FE01D4800681AE01C48006810E0EB
:104CF0001A4806E01848006812E01748006808E003
:104D000015480068FEF74BFB069AFFF7E3FB1148D6
:104D10003430FEF74BFB069AFFF7DCFB0D483430CE
:104D2000FEF749FB069AFFF7D5FB00200BB0F0BD5C
:104D300008200BB0F0BD05200BB0F0BD3001002005
:104D40008C18002074020020F00000200C000020CD
:104D500030010020000300205805002054050020E9
:104D60008C0100206005002010000020F0B591B0FB
:104D70000E4604460022C2810C20215E012900DA81
:104D80007EE302926568A7680020034603900490C2
:104D90000A97069627462888072638220240083AAE
:104DA000D208AC1C09948C1E042A0893079428D8B6
:104DB000B043C0467A441279520097440224506F9F
:104DC000B8000422012148280C9100D1BAE0C8287B
:104DD00000D1B7E0882800D023E1099800780328A3
:104DE00000D1C1E104283C4600D0F0E17A4D2846CC
:104DF000FDF7C0FD0146002228460B92FDF73AFD63
:104E0000BDE10B969BE009990E88002502227349AB
:104E100088420C9200DD97E07149884200DD03E191
:104E2000704988423C46059600DD45E1FF219031FE
:104E300088420A9F0B9500DDCCE19028069E00D1A8
:104E4000ABE2D02800D1AEE211210901884200D0A6
:104E50005DE2059801B26448FEF7B9FA91E11838AD
:104E60000621C841042800D913E1042102280C912D
:104E70000B913C460A9F069E00D082E100220998D1
:104E8000805E5A494843C10F000C401801B2524895
:104E90000B92FDF7E5FC04200C9072E10998037871
:104EA000002B00D1B7E020B20590AA1D01203C469E
:104EB0000A9F069E85B204210B9105998D42EBDA7B
:104EC000151F2B70411CD31E1D78002D00D1EDE065
:104ED000374626460C918CB205998C4200DBDDE00A
:104EE0001D70841C931E1D78002D00D1DAE00C94F7
:104EF000A4B205998C4200DBD0E01D70C41C531E87
:104F00001D78002D00D1CDE00C94A4B205998C42FF
:104F100034463E460A9F00DB33E11D70151D1378B1
:104F2000001D002B2A46C5D12B1F0146BEE022B230
:104F300069888E1CB3B2934226DD0A200B90039839
:104F40000C901BE10B9219E12949884200DD86E0B3
:104F5000284988423C4600DDC6E00596264988423D
:104F60000A9F00DD4DE19D2109018842069E00D186
:104F700087E1A1210901884200D182E1A52109012F
:104F8000884200D17DE1C2E128380622D0411428B0
:104F90003C460A9F0C96069E00D9B8E104220B926B
:104FA0004000C0467844808840008744EA00EA0018
:104FB000EA00EA00B001B0012700B301BA01B00174
:104FC000B001B001B001E601B001B001B001B00123
:104FD000B001B001F001C0468C180020CF090000DC
:104FE0008F0400008F0200008C010020AB2A00001B
:104FF0004F140000CF0B00008F0A0000A888E9883A
:1050000009040818062102F025FF01B22A89FC488C
:10501000FDF726FCB8E1012103463C460A9F069EA7
:1050200044E005200B90A9E0FC4988423C4671DC35
:10503000FB4988420A9F00DDF1E0059649210901FC
:105040008842069E00D1B4E159210901884200D16D
:105050005AE15D210901884200D155E157E1F1494A
:1050600088423C460B9505966ADCEF4988420A9FC8
:1050700000DDE2E0FE498842069E00D19DE1FE4946
:10508000884200D19BE1FD49884200D03FE1F948C8
:10509000E1E005200B9004200C906FE034463E4682
:1050A0000A9F6EE0214634463E460A9F0C9100203E
:1050B000187004200B9064E0F64988420A9F00DDD6
:1050C000CDE0292109018842069E0B9500D178E1A7
:1050D0002D210901884200D175E131210901884261
:1050E00000D014E1FE4886E0F94988420A9F00DDBD
:1050F000D6E0BD2109018842069E00D104E1C1210C
:105100000901884200D1FFE0C5210901884200D190
:10511000FAE0FCE0EF4988420A9F00DDD0E08521FB
:1051200009018842069E00D1EEE0892109018842EA
:1051300000D1E9E08D210901884200D1E4E0E6E0F8
:10514000D94988420A9F00DDD2E0DB498842069EA9
:1051500000D13AE1D949884200D139E1D8498842A1
:1051600000D0D4E0DD4875E0CB4D2846FDF7F9FBD3
:105170000146002228460B92FDF772FB3C460A9F2F
:10518000069E07980C9A801A01B2089B180602D155
:10519000002900D162E1300400D176E10B9D3D7021
:1051A000E089401CE081002D01D001200490072DF2
:1051B00000D155E10A2D00D152E15B1C90B2099A51
:1051C00015187F1C761E002900DDE1E548E100206E
:1051D0000B90D4E7192109018842069E00D1FAE01C
:1051E0001D210901884200D1FCE0212109018842EA
:1051F00000D08CE0B9480068059909B2FEF7E7F8DD
:10520000BFE7A92109018842069E3AD0B5210901CC
:10521000884279D0B9210901884275D077E0792197
:1052200009018842069E6FD07D21090188426BD01A
:1052300081210901884267D069E0A2498842069E1F
:1052400000D1D6E0A049884200D1D5E09F498842EC
:105250005DD1A34800680599FEF7BBF891E73521B9
:1052600009018842069E0CD039210901884200D1EB
:10527000C8E045210901884249D10B959648343050
:10528000B2E00DA910AA9448154600F064FE002073
:105290000B902A5E059801B28F4800F000FF70E77E
:1052A000C92109018842069E2ED0E52109018842C4
:1052B0000B9500D165E7E9210901884227D160E714
:1052C0000596912109018842069E1DD0952109016C
:1052D00088420B9500D1A9E099210901884216D195
:1052E0006D4D2846FDF72FFB0599090480B2A4E017
:1052F0006E498842069E00D1A4E06D49884200D1E3
:10530000A6E06C49884202D104200B9039E70520C1
:105310000B9036E70420295E2A895F48FDF7AAFA38
:1053200032E00A200B90480700D02AE70806C10E99
:10533000052900D925E7002926D00A3500200B9041
:105340000346019105930520C043285E5449484314
:10535000C10F000C40180DAA5080A81E0088908034
:1053600028881080D9B24F4800F07CF9059B01993C
:1053700008355B1C9942E5D103E7A888E988090450
:1053800009184548FDF712FB00200B90F9E6291D8E
:105390004248FDF719FC0B90F3E6059801B251481D
:1053A000FEF734F8EDE6059801B24E48FEF716F820
:1053B000E7E60B95484834300FE04A484AE0494850
:1053C00042E0474808E046480DE04448006841E0B4
:1053D0004248006838E041480068059909B2FEF784
:1053E00015F8CEE63D480068059909B2FDF7F6FFCD
:1053F000C7E63B4800682DE03948006824E0C04615
:105400008C1800200DA910AA33480D4600F0A3FD0A
:1054100000200B90295E059802B23DE74F0800007E
:105420008F070000CF1500000F1500001A4D284609
:10543000FDF789FA2C490840059941182846FDF7DF
:10544000B5FA9EE6244834300599FDF7C9FF98E681
:10545000214834300599FDF7DBFF92E60B98049064
:1054600004980028029A0BD0C0B211B0F0BDC0461B
:10547000501400008C01002090140000D014000093
:10548000E2811046C0B211B0F0BD0820C0B211B028
:10549000F0BDC0464F0300008C180020F40000202F
:1054A000AB2A000074020020CF180000D0180000C2
:1054B00010190000581B0000D01500001016000045
:1054C0005016000010150000501500009015000047
:1054D0008F0C00000F090000000300205805002079
:1054E000540500208C0100200000FFFFF0B583B0C0
:1054F0000091044653200025255422465332019240
:1055000001201552E1805571A66EE06E029001F007
:10551000C9FC0421304600F06AFA6088009F784395
:1055200001B2029801F01AFD304629462A4600F0E1
:10553000E9F9208A784301B2A289304600F0E2F905
:10554000E089784301B2A289029801F0BCFC01987D
:1055500005716069A060A189208848437D21C90048
:1055600002F056FC401CA08003B0F0BDB0B505466B
:1055700080880124002805D0401EA880000401D0A6
:105580002046B0BDA868002822D08188EA884A4316
:1055900011B20288A86E00F0B5F9E888AA685188AF
:1055A000414309B2E86E128801F08DFC5820295C55
:1055B000491C2954A8688168A96029880088484343
:1055C0007D21C90002F024FC401CA8802046B0BD0B
:1055D0000020B0BD4921415C4930C07B884201D2E6
:1055E00000207047012070474821405C70470C2321
:1055F0004B43C018018A9180C06810600120704739
:10560000B0B5542500244453049D074668372EC77F
:10561000426901464831002A0FD09268002A0FD013
:105620009268002A0FD095680422002D134600D0FE
:105630000523002D09D1032207E00123224604E0BF
:105640000223012201E0032302220B700C235343A7
:10565000C21854610088024A4243D00C8873B0BD1E
:10566000CDCC00000C234B43C018918801821168F7
:10567000C160012070470000F0B585B004462A20C3
:10568000205CFEF751FC02462948824249D026465A
:105690002936636A3078049040001A52208B0390B8
:1056A000C7B20025002F28462ED003203840029094
:1056B000781E03280195009302D20021084610E0CD
:1056C000FC20074000211D4608462B88C0186B8827
:1056D000C018AB88C018EB88C0180835091D8F4268
:1056E000F3D1029B002B019D009F0DD049007B5AF6
:1056F000C018029B012B07D0C9191F464B88C01840
:10570000022F01D089884018A280039F394602F0F9
:105710007FFBE080781E0499884201D908464D1C21
:105720003570204600F006F8208105B0F0BDC04677
:10573000FFFF000010B5C188838B428B9A4203D1D2
:10574000914206D9022010BD048CA14207D2042048
:1057500010BD008C81420BD30020800010BD847FDF
:10576000002C08D091420AD900218177022010BD77
:105770000120800010BD9942E4D2012181770020F0
:1057800010BDB0B5418B028C51184908028B002A1C
:1057900016D0426A002311805C1C058BAC420FD2EC
:1057A00051809C1C058BAC420AD29180DC1C058B7D
:1057B000AC4205D2D18008321B1D048BA342EAD330
:1057C000292200238354C1808180B0BD10B50446D6
:1057D0000C30FEF7CDFC2A2160542046FFF7D1FFA4
:1057E00010BD0C21405E70470421405E70471021BF
:1057F000405E704780B51421415E0C22825E0348F2
:10580000504302F027FB00B280BDC046FF7F00007E
:10581000B0B5C2780378002593422C4600D31C46CD
:10582000934200D25B1C495FCD134919694089B28C
:10583000858AA9421D4600D82546C48AA142194638
:1058400000D329461224045FE51364196C40A4B206
:10585000058BAC4200D80B460370D8B2801A411EAB
:105860008841B0BDF0B581B00446007804280AD064
:1058700004216658E16802290AD201290CD1618805
:105880000E04002107E008216658E1680229F4D3DC
:10589000A2699619491EE160032810D16069371486
:1058A000FFF79FFF0546381A01B22069FDF7BAFDE0
:1058B00001046660A16006214F43694303E0A660CE
:1058C000300C00210F46064A1160064A1760064A4E
:1058D00097855185054A9180578000B201B0F0BD8F
:1058E0002C07002028070020E8190020800600204F
:1058F00080B50178032903D100690021FDF765FD1A
:1059000080BD0000F0B581B016460D460446007813
:1059100004280FD1204600F057F80746204807809A
:105920002820215E0020A94202DCE18C8D4214DD9A
:1059300001B0F0BD6068070C19480780E18B0020BA
:105940008D42F5DC2421615EA942F1DC218C8D427F
:1059500003DA2221615EA942EADB002E11D06580C4
:10596000A08B46437D20C100304602F051FA411C15
:10597000E160E81B000402F06DFAA061012001B0B3
:10598000F0BD2078032801D0082000E0042029047D
:1059900021500020E060A061012001B0F0BDC046B0
:1059A0002A19002010B504464069FFF71AFF0004C9
:1059B000606010BDC18D008E000440187047062144
:1059C000405E7047406970470A21405E7047B0B53D
:1059D000002343802A24045D0470848D2404C58D33
:1059E0002D0444608560C36010300EC0B0BD00223D
:1059F000C260017070474161704700218161C160E0
:105A0000704780B5006834300021FDF7DEFC80BDB2
:105A1000B0B5F421425C0146F431CB7E8C7EE51AB0
:105A20004B6907D0AD182C1B00DB25466C00041910
:105A3000743401E00C4618340025645F520082186B
:105A40007425525F9A18121B4A61898D0A41C281DE
:105A5000B0BD0000F0B587B0059104468720400036
:105A6000225C2046FC3003900026002A3746304650
:105A70000296069400D187E0032510462840049042
:105A8000501E03280192009002D20020074617E022
:105A9000FC21114022467A32002318461F46EE436D
:105AA000965F0524E443145F3C19A4190126F643CC
:105AB000965FA419D65EA7190832001D8142EED167
:105AC000049B002B069C01990ED0400020187422E4
:105AD000825EBF18012B07D07622825EBF18022B90
